:100000000C9473010C94B7010C94B7010C94B701D4
:100010000C94B7010C94B7010C94B7010C94B70180
:100020000C94B7010C94B7010C94BA190C948C1A67
:100030000C9427130C94B7010C94B7010C94B701DE
:100040000C94B7010C94B7010C94B7010C94B70150
:100050000C94B7010C948E130C94B7010C94B70157
:100060000C94B7010C94B7010C94B7010C94B70130
:100070000C94B7010C94B7010C94B7010C94B70120
:100080000C94B7010C94B7010C94B7010C94B70110
:100090000C94B7010C94B7010C94B7010C94B70100
:1000A0000C94B7010C94B7010C94B70166026C0272
:1000B0007002730277027B027F02830288028C0245
:1000C0009002940297029B029F02A302A702AC0235
:1000D0009F099F09D909D9093F0B3F0B3F0B3F0BE4
:1000E000180A3F0BBF0ABF0A330B3F0B3F0B3A0BFB
:1000F000CC0ACC0ACC0ACC0ACC0ACC0ACC0ACC0A50
:10010000CC0ACC0ACC0ACC0ACC0ACC0ACC0ACC0A3F
:10011000DC0AEC0AF30AFA0A040BC70BC70BDA0B6A
:10012000DA0BD00BDA0BDA0BDA0BC70BC70BD60BDB
:10013000DA0BDA0BD60BF11A181B061C181B061C5F
:10014000601B831B061CD91BE81B29001E001F0017
:100150002000210022002300240025002600270083
:100160002D002E002A0035002B0014001A00080074
:10017000150017001C0018000C00120013002F00BF
:10018000300031004C00390004001600070009005F
:100190000A000B000D000E000F00330034000000B9
:1001A00028004B00E1001D001B000600190005009F
:1001B000110010003600370038000000E500520042
:1001C0004E00E000E300E200000000002C00000010
:1001D00000000000E600E300E400500051004F0082
:1001E00004033000000022035F003600300070007E
:1001F00063005F006B00650065006200200028005E
:1002000051004D004B002900000010035000520027
:1002100030005400300032003200000004030904B2
:1002200009023B00020100A0FA09040000010301D9
:100230000100092111010001224000070581030886
:10024000000A090401000103000000092111010056
:10025000012239000705820320000112011001006C
:10026000000008EDFE0F0F01000102030105010966
:1002700006A101050719E029E71500250195087574
:10028000018102050819012905950575019102955D
:1002900001750391010507190029F715002501953E
:1002A000F875018102C005010906A101050719E0E1
:1002B00029E715002501950875018102950175084A
:1002C000810105081901290595057501910295011E
:1002D000750391010507190029FF150026FF0095F8
:1002E0000675088100C011241FBECFEFDAE0DEBF23
:1002F000CDBF04B603FE24C080912F02909130023E
:10030000A0913102B09132028730904BA740B04BA0
:10031000B9F410922F021092300210923102109212
:10032000320214BE84B7877F84BF88E10FB6F89489
:1003300080936000109260000FBEE0E0F8E3099542
:1003400011E0A0E0B1E0E4EFF8E302C005900D9207
:10035000A232B107D9F712E0A2E2B1E001C01D92CA
:10036000AF32B107E1F70E94E3160C94781C0C94AD
:1003700000000C9424060C94250681E0089581E089
:1003800008950C94BF010E94B50B2FEF84E39CE00D
:10039000215080409040E1F700C000000C94B4135D
:1003A000FF920F931F93CF93DF938C01FC01C081C9
:1003B000D18180915F01811113C08281882349F02E
:1003C000CE010E940D11F82E682FCE010E94B310AD
:1003D00004C0CE010E94E110F82EBE018F2D04C092
:1003E000CE010E940D11BE010E947703EC01B801FD
:1003F0000E94C101882309F466C1B801CE010E94A0
:10040000D805882309F45FC1C531FCE5DF0729F56C
:100410000E94DF11382FF801228180910001909114
:100420000101222371F03A7A21E009F420E02093BF
:100430002201222311F065E301C069E20E94BF128C
:1004400009C020912201222311F065E301C069E275
:100450000E94CA120E94AC1136C1C6318CE5D80781
:1004600008F0A4C0C130ECE5DE0759F4F801828140
:10047000882309F428C18091F70181608093F701F6
:1004800022C1C230FCE5DF0708F478C0F8018281A0
:10049000882309F47BC00E943212811102C00E949D
:1004A00018120E944F1290E0909321028093200234
:1004B000FE01E350FC45E231F10520F4EA5AFF4F1A
:1004C0000C943C1C80912002816003C0809120022A
:1004D0008260809320024BC0809120028460F9CF1B
:1004E0008091200213C0809120028061F2CF809120
:1004F00020028062EECF809120028064EACF80915A
:1005000020028068E6CF8091200284608860E1CF7D
:10051000809120028E7FDDCF809120028D7FD9CF08
:10052000809120028B7FD5CF8091200213C08091D3
:1005300020028F7ECECF809120028F7DCACF809106
:1005400020028F7BC6CF809120028F77C2CF80910F
:1005500020028B7F877FBDCF9091200297FB882759
:1005600080F921E0822780FB97F990932002809107
:1005700020020E9453120E94B50BA5C0C115DC4594
:1005800069F081E08093270180932801C801DF9101
:10059000CF911F910F91FF900C94BD01F8018281C2
:1005A000882309F490C00E94C3018DC0CD3CECE5C6
:1005B000DE0759F5F8018281882361F01092280145
:1005C0000E945913909326018093250180E20E9496
:1005D0004F0979C080912801882321F080E20E9490
:1005E000560971C080912501909126010E946513E2
:1005F000883C910598F780E20E94560988E20E94A3
:100600007E0888E20E9422095EC0CE3CFCE5DF073E
:1006100008F044C0CB3C8CE5D80719F5F80182817D
:10062000882351F0109227010E94591390932401BE
:100630008093230182E0CBCF8091270181110FC0ED
:1006400080912301909124010E946513883C9105BB
:1006500030F486E20E947E0886E20E94220982E04F
:10066000BECFCC3CDC4509F08CCFF80182818111F2
:10067000A5CF809128018111B1CF80912501909162
:1006800026010E946513883C910508F0A7CF87E2F8
:100690000E947E0887E20E942209A0CFC03DFCE5AF
:1006A000DF0731F4F8018281882369F080E009C016
:1006B000C13DDC4509F065CFF8018281882319F03E
:1006C00082E00E94801780E0DF91CF911F910F910F
:1006D000FF9008950C94B9010C94BB0108950C94FB
:1006E0006E030C946F0380E090E0089508959FE0FE
:1006F000799FF00111249BE4899FE00DF11D1124E5
:10070000E60FF11DEE0FFF1FE65BFE4F8591949102
:100710000895880F991F80529E4FFC0185919491F6
:100720000895CF93DF930E9477030E943805EC0170
:10073000811520E5920708F040C0811530E4930749
:1007400008F01BC1883E910508F5803E910508F030
:100750008BC1883A910578F4853A910508F09DC0DF
:100760008130910509F480C108F437C184309105C6
:1007700008F07AC132C18D3B910508F499C0803CE4
:10078000910508F42AC1805C9109E9C0C11580E295
:10079000D80758F4C11591E0D90708F065C1C03FEA
:1007A000D10508F41AC1D0655FC1C11520E3D20795
:1007B00008F0D9C0CE019F70D2C0811535E59307EE
:1007C00008F043C0C11584E5D80708F0EDC0C11595
:1007D00092E5D90708F5C11521E5D20708F0D0C088
:1007E0002C2F237081E090E002C0880F991F2A957A
:1007F000E2F79C689E01E4E036952795EA95E1F7DB
:100800002370922BCF70C695C69530E2C39FE0014E
:100810001124C82BD92B28C18C2F869586959E0133
:1008200023703327C115D34508F0AFC090E2899FEC
:10083000E001112481E090E002C0880F991F2A9501
:10084000E2F7C82BD92BDC680FC1811529E5920787
:1008500080F4811538E5930708F0ABC0C11586E533
:10086000D80708F0BAC0CF71DD27DC2FCC27D062C3
:10087000FBC0C1159AE5D90708F4A0C0CE01905677
:100880008115904208F0A9C08D2F8F710E94B40588
:10089000DD27D0628F71D82BE7C0853A910509F426
:1008A0009FC0863A910509F49EC0C3E8D0E4DCC03D
:1008B000883A910509F49AC0893A910509F499C0DA
:1008C0008A3A910509F498C08B3A910509F497C0CA
:1008D0008C3A910509F496C08B3B910509F495C0BB
:1008E0008C3B910509F494C08D3A910509F493C0AD
:1008F000803B910509F492C08E3A910509F491C0AC
:100900008F3A910509F490C0813B910509F48FC09D
:10091000823B910509F48EC0833B910509F48DC09B
:10092000843B910509F48CC0853B910509F48BC08B
:10093000863B910509F48AC0873B910509F489C07B
:10094000883B910509F488C0893B910509F487C06B
:100950008A3B910509F086C0CAE2D6E485C00E94B0
:100960008903EC0181C0CE019927D3FF03C0EC01BC
:10097000D86C7AC0EC01D06C77C0DF70D06A74C0DC
:10098000DC2FCC27C16FD06A6FC090E2899FE00155
:10099000112481E090E002C0880F991F2A95E2F7A8
:1009A000C82BD92BDA6860C0DC2FCC27C46FD06A83
:1009B0005BC0D82FCC27C06FD06A56C08C2F8F70E9
:1009C000806E90E0906A34E0D695C7953A95E1F74D
:1009D000CF709C013C2BE90147C0C0E0D0E044C08F
:1009E000C1E8D0E441C0C2E8D0E43EC0C2EED4E4E5
:1009F0003BC0C9EED4E438C0CAEED4E435C0C5EB80
:100A0000D4E432C0C6EBD4E42FC0C3EBD4E42CC092
:100A1000C4EBD4E429C0C7EBD4E426C0CCECD4E4C6
:100A200023C0CDECD4E420C0C3E8D5E41DC0CAE89F
:100A3000D5E41AC0C2E9D5E417C0C4E9D5E414C0AE
:100A4000C1E2D6E411C0C3E2D6E40EC0C4E2D6E4EB
:100A50000BC0C5E2D6E408C0C6E2D6E405C0C7E2D2
:100A6000D6E402C0C0E0D4E4CE01DF91CF91089576
:100A70008238910549F1B0F48133910509F459C0E8
:100A800048F48932910509F44FC08A32910509F47E
:100A900055C008958533910509F441C08933910506
:100AA00099F00895833E910531F138F4803E910527
:100AB00091F0823E9105A9F00895863E910501F1DD
:100AC000873E910539F108952091200220FD3BC019
:100AD00021FD39C008958091200280FF34C089E350
:100AE00041C08091200282FF32C08091200284FFA9
:100AF0002CC080E037C08091200282FD28C0F5CF55
:100B00008091200283FF25C08091200284FDF1CFD7
:100B100087EE28C08091200283FD1BC0F5CF809115
:100B2000200285FF18C019C08091200285FF15C0E2
:100B300012C08091200286FF12C013C08091200253
:100B400086FF0FC00CC080EE0DC083EE0BC082EE9E
:100B500009C086EE07C085E305C089E203C081E3D2
:100B600001C08AE290E008959091200292FF0DC0AA
:100B7000282F2871283019F4877F846006C0282F19
:100B80002471243011F48B7F886093FF0DC0282FCF
:100B90002871283119F4877E846106C0282F2471BA
:100BA000243111F48B7E886194FD877E0895089529
:100BB000CF93DF93EC01FB018281811102C081E0C0
:100BC00040C080913601811125C0C631DC45B9F79E
:100BD0000E94D70581E0809336010E9459139093BB
:100BE0003501809334011092290110922B0110924B
:100BF0002A0110922D0110922C0110922F011092B7
:100C00002E01109231011092300110923301109296
:100C1000320116C080913401909135010E94651314
:100C2000883C910560F680912901E82FF0E0EE0FF5
:100C3000FF1FE65DFE4FD183C0838F5F8093290144
:100C400080E0DF91CF9108950895089585B7806879
:100C500085BF85B7806885BFADE0B1E021E030E0B9
:100C60008D91E82FE295EF70F0E041A18F70B9010E
:100C700002C0660F771F8A95E2F7CB01462B41A38E
:100C800092A1982B92A371E0AC31B70749F7ACE180
:100C9000B1E021E030E08D91E82FE295EF70F0E0D7
:100CA00041A18F70B90102C0660F771F8A95E2F7E4
:100CB000CB01962F9095492341A392A1982B92A303
:100CC00071E0A132B70739F7E1E4F1E0A7E3B1E061
:100CD000119211921D921D9281E0EB34F807C1F739
:100CE0000C946A032F923F925F926F927F928F9241
:100CF0009F92AF92BF92CF92DF92EF92FF920F93AB
:100D00001F93CF93DF930DE011E0212C312CEE24C3
:100D1000E394F12C66246394E80189918E01E82F15
:100D2000E295EF70F0E021A18F70A70102C0440F9F
:100D3000551F8A95E2F7CA01242B21A322A1342F43
:100D40003095232322A350EA5A95F1F76701022C2C
:100D500002C0CC0CDD1C0A94E2F74601809490940A
:100D60002CE131E0A7E3B1E0712C5D014D915C9184
:100D70001197E90159909E01652D62956F7070E0A1
:100D8000EB0168A170E0D52DDF700D2E02C07595C6
:100D900067950A94E2F760FD04C0BA016C297D29C9
:100DA00003C0BA016821792111967C936E93129643
:100DB000E501688179814617570711F0772473940C
:100DC000D1E021323D0789F691A1982B91A392A100
:100DD000982B92A3772041F060924B010E94591307
:100DE00090934D0180934C01EFEF2E1A3E0AFFE0E5
:100DF0002F16310409F090CF80914B018823B1F078
:100E000080914C0190914D010E946513069770F0FE
:100E1000E7E3F1E0A1E4B1E0819191918D939D939D
:100E200021E0E134F207C1F710924B010E946C03FC
:100E300081E0DF91CF911F910F91FF90EF90DF90B4
:100E4000CF90BF90AF909F908F907F906F905F906A
:100E50003F902F900895E82FF0E0EE0FFF1FEF5B1B
:100E6000FE4F80819181089508959093530180935E
:100E700052010895E0915201F0915301309721F011
:100E80000190F081E02D099480E00895E0915201F5
:100E9000F0915301309721F00280F381E02D099405
:100EA000089520915001309151018217930771F0FC
:100EB0009093510180935001E0915201F0915301C0
:100EC000309721F00680F781E02D09940895209154
:100ED0004E0130914F018217930771F090934F01AB
:100EE00080934E01E0915201F0915301309721F02F
:100EF0000084F185E02D0994089508950C947D07F0
:100F000081E008950E9450130E9426060E94241436
:100F1000E0E2F2E080818068808308955F926F92C2
:100F20007F928F929F92AF92BF92CF92DF92EF9279
:100F3000FF920F931F93CF93DF93CDB7DEB72A971E
:100F40000FB6F894DEBF0FBECDBF0E9472060E949E
:100F50008007811111C08FEF89838A831B820E94D1
:100F600059138160782F9D838C8349815A816B81CD
:100F70008D810E944A0857C095E5C92E91E0D92E6F
:100F800000E010E0AA24A394B12C502E802F0E94E0
:100F90002B073C01F601E190F1906F01E826F9265C
:100FA000E114F10431F40F5F1F4F0530110569F7AB
:100FB000D2CF8091F70181FD0E94340720E030E01C
:100FC0004501022E02C0880C991C0A94E2F7C40164
:100FD0008E219F21892B09F12E835F826820792041
:100FE00081E0672809F480E088870E9459138160B6
:100FF000782F9A8789874E815F8168858A850E94CC
:101000004A08F801EE0FFF1FEB5AFE4F80819181D5
:10101000882599259183808306C02F5F3F4F2F300D
:10102000310571F6C0CF109154010E943A0718178C
:10103000D9F00E943A07809354012A960FB6F8948B
:10104000DEBF0FBECDBFDF91CF911F910F91FF90FB
:10105000EF90DF90CF90BF90AF909F908F907F9058
:101060006F905F900C9471032A960FB6F894DEBFD0
:101070000FBECDBFDF91CF911F910F91FF90EF90E9
:10108000DF90CF90BF90AF909F908F907F906F90A8
:101090005F900895CF93DF93CDB7DEB72B970FB650
:1010A000F894DEBF0FBECDBF4F83588769877A871C
:1010B0008B87DE01119686E0FD0111928A95E9F792
:1010C00085E0FE01379601900D928A95E1F74981FE
:1010D0005A816B817C818D819E810E948F0E2B961F
:1010E0000FB6F894DEBF0FBECDBFDF91CF9108954C
:1010F000FC01808191810E944D110895882309F49B
:10110000A0C09CEF980F913A40F4682F80910001A5
:10111000909101010E94BF120DC090E2980F98308B
:1011200058F4877091E001C0990F8A95EAF7892FEA
:101130000E94E2110C94AC119BE5980F933070F46F
:10114000853A29F0863A31F482E890E005C081E8DA
:1011500090E002C083E890E00C94510798E5980F66
:10116000953108F06EC0883A61F1893A69F18A3A9E
:1011700071F18B3A79F18C3A81F18B3B89F18C3B9F
:1011800091F18D3A99F1803BA1F18E3AA9F18F3A14
:10119000B1F1813BB9F1823BC1F1833BC9F1843BA1
:1011A000D1F1853BD9F1863BE1F1873BE9F1883B01
:1011B000F1F1893BF9F18A3B09F03FC08AE292E004
:1011C0003EC082EE90E03BC089EE90E038C08AEEEF
:1011D00090E035C085EB90E032C086EB90E02FC008
:1011E00083EB90E02CC084EB90E029C087EB90E08B
:1011F00026C08CEC90E023C08DEC90E020C083E80A
:1012000091E01DC08AE891E01AC082E991E017C020
:1012100084E991E014C081E292E011C083E292E09F
:101220000EC084E292E00BC085E292E008C086E244
:1012300092E005C087E292E002C080E090E00C946A
:1012400067070895882351F19CEF980F913A40F475
:10125000682F80910001909101010E94CA120DC077
:1012600090E2980F983058F4877091E001C0990F80
:101270008A95EAF7892F0E94E8110C94AC119BE53E
:10128000980F933020F480E090E00C945107885A36
:10129000853120F480E090E00C946707089588235E
:1012A00021F00E94E2110C94AC110895882321F0E2
:1012B0000E94E8110C94AC1108958F929F92BF92F6
:1012C000CF92DF92EF92FF920F931F93CF93DF9312
:1012D00000D0CDB7DEB74C01472FFC01D580D294AA
:1012E0009FE0D922C280CC2031F079836A830E94AA
:1012F000FF116A81498149836A830E94A51149814E
:101300006A81882389F0CC2079F080E2860F8830CA
:1013100058F082E00E948E110E94A511BB24B39464
:10132000B82649816A8101C0B12CE42EE2948FE095
:10133000E822F12CF701E859FF4F0C943C1C842F54
:10134000807F142F1F70882311F01295107FCC20FE
:10135000C1F0112309F472C180E2860F883010F0C9
:10136000611105C0812F6A830E94E21104C0812FA0
:101370006A830E94F2116A816A830E94AC116A81B9
:101380005DC1862F6A830E9422096A81112309F4B4
:1013900076C180E2860F883010F0611104C0812F81
:1013A0000E94E81103C0812F0E94F8110E94AC1125
:1013B00066C1942F907F842F8F70903211F08295A8
:1013C000807F662319F06130B1F021C0CC2041F05C
:1013D000DD2039F1F1E0DF1224C00E9412124FC16A
:1013E000DD2021F021E0D21609F449C189830E9451
:1013F00015128981DEC0CC2029F095E09D1508F4F6
:101400003EC10FC0E4E0ED1508F439C1D2C0CC20D4
:1014100059F0DD2031F0F401958190FF0FC19F70EC
:1014200095830E944F092BC1DD2009F4C2C017C16A
:10143000842F837009F04EC0C1102DC1262F229534
:1014400026952770220F220F862F8F70C82ED12C41
:10145000E12CF12C022E04C0CC0CDD1CEE1CFF1C78
:101460000A94D2F764FF10C06FE070E080E090E073
:1014700004C0660F771F881F991F2A95D2F76095C1
:1014800070958095909503C060E070E0CB01242FAB
:1014900026952695237030E02230310569F02330FF
:1014A000310589F06C297D298E299F29213031054C
:1014B00071F00E94E00FEFC06C297D298E299F29D1
:1014C0000E94F20FE8C00E94E00FC701B6010E941F
:1014D000CE0FE1C0CC2019F0842F817001C0869519
:1014E000882309F4D8C0262F229526952770220F2D
:1014F000220F862F8F70C82ED12CE12CF12C022EBA
:1015000004C0CC0CDD1CEE1CFF1C0A94D2F764FF57
:1015100010C06FE070E080E090E004C0660F771FBD
:10152000881F991F2A95D2F76095709580959095A0
:1015300003C060E070E0CB01242F26952695237030
:1015400030E02230310569F02330310589F06C2913
:101550007D298E299F292130310571F00E948E103E
:101560009AC06C297D298E299F290E94A01093C0C2
:101570000E948E10C701B6010E947C108CC0062FFD
:1015800010E0F801E05EF109E531F10508F052C024
:10159000E858FF4F0C943C1C162F1F70842F8F713E
:1015A000CC2021F00E942710812F3BCF0E944210B7
:1015B000812F0E94560963C0CC2049F0F4E0FD154C
:1015C00008F45DC0842F8F710E94611058C025E01F
:1015D0002D1508F454C0F6CFCC2039F0842F8F712C
:1015E0000E9427104CC0CC20C9F3842F8F710E9419
:1015F000421045C0CC2029F0842F8F710E94181012
:101600003EC00E9413103BC0CC2051F0142F1F711C
:10161000812F0E94271063E0812F0E9485112FC027
:1016200081E00E948E1181E08D1548F582E00E94D4
:101630008E1125C0CC2031F0DD2081F2862F0E9452
:101640007E081DC0DD2089F2693349F49FEFE7EE83
:10165000F3E09150E040F040E1F700C00000862F39
:101660000E9422090CC04F70C4010E9473030E94A3
:101670003C0F15C04F70C4010E94760310C028E0D3
:10168000E216F10441F05CF09AE0E91AF108E2E0B8
:10169000EE16F10420F40E943A070E947103BB2069
:1016A000F1F00E94811180FD1AC0F40112820E94A3
:1016B0007B110E942710C4010E947D0B0E947B11A8
:1016C0000F900F90DF91CF911F910F91FF90EF90AE
:1016D000DF90CF90BF909F908F900C9442100F900E
:1016E0000F90DF91CF911F910F91FF90EF90DF90BE
:1016F000CF90BF909F908F9008950F931F93CF939B
:10170000DF93EC01288139818B819C81892B31F019
:101710003F3F11F080E003C02F3FE1F781E08111EE
:1017200013C0CE010E94D001882371F068817981B5
:101730008A810E9458118C010E94B2100E94CB0F26
:10174000B801CE010E945D09DF91CF911F910F91E9
:1017500008950E94FF110E940F1280910001909144
:1017600001010E94D5120C94AC110E94EF110C944F
:10177000A90B0E944D11E92FE295EF70F0E032972E
:10178000EE30F105B8F4E357FF4F0C943C1C803F5A
:1017900059F018F4803E70F407C0843F59F404C037
:1017A000803E10F0813F31F481E0089593FB88275B
:1017B00080F9089580E00895CF93DF9300D000D0A2
:1017C0001F92CDB7DEB70F900F900F900F900F9034
:1017D000DF91CF910895CF93DF9300D000D000D058
:1017E000CDB7DEB726960FB6F894DEBF0FBECDBFDD
:1017F000DF91CF9108951F93CF93DF93C091600144
:1018000016E080916101C81799F0D0E01C9FF001AB
:101810001D9FF00D1124EE59FE4F408151816281D0
:101820007381848195810E94EB0B2196C770E9CF6B
:10183000DF91CF911F9108954091920150919301B2
:10184000609194017091950180919601909197011A
:101850000C94EB0BCF938091970182958F7009F0D8
:101860005FC080919401882309F45AC020916001DF
:10187000A091610160919201709193018091950115
:101880009091960131E06F3F09F030E0B32FC6E050
:101890002A1709F445C0009721F07F3F21F44B2F10
:1018A00003C041E001C040E030E040FD35C0C29FD0
:1018B000F001C39FF00D1124EE59FE4F41817413C6
:1018C0002BC04081641328C04281411125C043814F
:1018D00054814817590710F441505109481B590BBE
:1018E000483C5105C8F4809197018F7080618093C6
:1018F000970186E0829FF001839FF00D1124E95942
:10190000FE4F80818F708061808382E991E00E9428
:101910007D0BCF910C94FB0B2F5F3F4F2770B8CFFF
:10192000CF910895CF92DF92EF92FF920F931F9382
:10193000CF93DF93CDB7DEB762970FB6F894DEBFD3
:101940000FBECDBF8C0185E0F801DE011D96019030
:101950000D928A95E1F7D8014C9111965C911197FF
:1019600012966C9112971396ED90FC9014977091CB
:101970009201E091930120919501309196012115FA
:10198000310531F0EF3F31F481E07F3F19F403C0BE
:1019900081E001C080E0B82FB170CB2E80FD6BC11B
:1019A000D0909401DD2009F4F5C0F0919701E21682
:1019B000F30638F0C701821B930B883C910548F071
:1019C0009DC0209530952E0D3F1D283C310508F017
:1019D00095C08F2F807F09F052C0E51314C0741397
:1019E00012C0D62E61110FC0FF70F061F093970105
:1019F0000E941C0C82E991E00E947D0B809197016E
:101A0000F80185837CC1EF2831F05F3F31F481E03C
:101A10004F3F19F403C081E001C080E080FD03C0A6
:101A200081E0862701C080E0F82FF170FF2E80FF53
:101A30001CC0809160012091610136E0821709F499
:101A400038C190E0389FF001399FF00D1124EE5914
:101A5000FE4F7181571306C07081471303C0728116
:101A6000671303C001968770E9CFD62E662309F469
:101A700046C18091970181608093970155C0E5131D
:101A800008C0741306C0611104C0D8011596FC93F8
:101A9000AEC04D875E878D859E856A8B0E94B90B8F
:101AA0006A89882329F1D62E662311F120919701A6
:101AB000822F82958F7090E002970CF462C0809123
:101AC00092019091930198878F831986FB86EA860D
:101AD0002C87CE01079653C0E51741F14D875E87ED
:101AE0008D859E856A8B0E94B90B6A89811130C0F1
:101AF000C8010E947D0BDD24D39401C18F2F807F0C
:101B000059F77E2DF98AE88A89890E94DC0B82E9DF
:101B100091E00E947D0BE2E9F1E086E0DF011D9299
:101B20008A95E9F70E941C0CD12CE9C07413D6CF1A
:101B30006111D4CFD8011596FC93C8010E947D0B8A
:101B4000E2E9F1E086E0DF011D928A95E9F7D7C06E
:101B5000D62E662369F220919701822F82958F708D
:101B600090E0029774F080919201909193019A8392
:101B700089831B82FD82EC822E83CE0101960E9416
:101B80007D0B86E0F801A2E9B1E001900D928A9503
:101B9000E1F78AC0E216F30628F0C701821B930B17
:101BA0009C0104C0209530952E0D3F1D283C310529
:101BB00008F053C0D62E662309F49ACFE5132CC043
:101BC00074132AC08091970180FD1DC0982F9295B3
:101BD0009F70C9F0D80115968C9315979F3039F0F6
:101BE0009F5F9295907F8F70892B15968C93C8017B
:101BF0000E947D0B86E0F801A2E9B1E001900D9210
:101C00008A95E1F753C086E0F801A2E9B1E00190BE
:101C10000D928A95E1F773C04D875E878D859E850D
:101C20000E94B90B882381F096E0F801A2E9B1E0A7
:101C300001900D929A95E1F78A8B0E942A0C0E94DE
:101C40001C0C8A89D82E5BC080919701816080939B
:101C50009701C8010E947D0B52C07E2DF98AE88A47
:101C600089890E94DC0BE2E9F1E086E0DF011D9248
:101C70008A95E9F71BC0662309F43ACF4D875E8742
:101C80008D859E850E94B90BD82E882309F430CF0C
:101C900086E0F801A2E9B1E001900D928A95E1F7A2
:101CA00082E991E00E9478080E942A0C0E941C0C94
:101CB00026C04D875E878D859E850E944D11292FF8
:101CC00022952F7030E0223031052CF49F7041F0C6
:101CD000811106C00CC0243031052CF49F7049F4EA
:101CE000805E883020F0C8010E947D0BCF2CDC2C58
:101CF00006C0D80115969C91907F91F7F8CF8D2D55
:101D000062960FB6F894DEBF0FBECDBFDF91CF91C4
:101D10001F910F91FF90EF90DF90CF9008951F9348
:101D2000CF93DF93CDB7DEB72C970FB6F894DEBF15
:101D30000FBECDBF4F83588769877A878B879C8773
:101D4000CE0107960E94920C8823C1F02F8138851E
:101D50008A859B85892B31F03F3F11F080E003C0DD
:101D60002F3FE1F781E0811147C04F815885698598
:101D70007A858B859C850E94EB0B3EC086E0FE0138
:101D80003796DE01119601900D928A95E1F7FF8159
:101D9000E8854A855B854115510531F0EF3F31F407
:101DA00081E0FF3F19F403C081E001C080E080FDC5
:101DB00023C02091610130E0C90101968770992705
:101DC0006091600170E086179707F1F1F983EA836B
:101DD0005D834C8396E0929FD001939FB00D1124B8
:101DE000AE59BE4FFE01319601900D929A95E1F7E2
:101DF000809361010E94FB0B16E08091600190913D
:101E00006101891779F1189FC00111248E599E4FE5
:101E10000E94920C882331F1E09160011E9FF00135
:101E20001124EE59FE4F408151816281738184817A
:101E300095810E94EB0B8091600190E00196877084
:101E4000992780936001D9CF0E94B50B1092610150
:101E500010926001E2E9F1E086E0DF011D928A95CF
:101E6000E9F7CACF2C960FB6F894DEBF0FBECDBFF0
:101E7000DF91CF911F910895EF92FF920F931F93DF
:101E8000CF93DF939C01009709F471C0F12CEE24ED
:101E9000E394E9012196F9018491843740F4843078
:101EA00008F056C0813081F0823021F160C0853762
:101EB00009F449C0C0F19CE7980F903708F057C06B
:101EC0008F770E94220946C089010E5F1F4FFE01D5
:101ED000849190E2980F983050F48770FE2D01C0E5
:101EE000FF0F8A95EAF78F2F0E94021215C00E94F9
:101EF0007E0814C089010E5F1F4FFE01849190E29D
:101F0000980F983068F48770FE2D01C0FF0F8A95F6
:101F1000EAF78F2F0E9408120E94AC11E8011AC044
:101F20000E942209FBCF2E5F3F4FFE01C491CC23BC
:101F300041F08FE99FE00197F1F700C00000C15028
:101F4000F6CFE90107C0FE01F490E901229602C034
:101F50000E947E088F2D882341F0EFE9FFE0319742
:101F6000F1F700C000008150F6CF9E0192CFDF91C3
:101F7000CF911F910F91FF90EF90089508950E94C7
:101F8000BE0F6093CE017093CF018093D0019093E8
:101F9000D1010C94A90B08950C94BF0F0F931F93BC
:101FA0000091CE011091CF012091D0013091D1014B
:101FB000602B712B822B932B1F910F910C94BF0FD1
:101FC0000F931F930091CE011091CF012091D0016A
:101FD0003091D10160237123822393231F910F91AC
:101FE0000C94BF0F0F931F930091CE011091CF015E
:101FF0002091D0013091D10160277127822793274A
:102000001F910F910C94BF0F08950C9404100E941F
:1020100005106093CA017093CB018093CC0190931B
:10202000CD010C94A90B60E070E0CB010C9407107B
:1020300041E050E060E070E004C0440F551F661FAF
:10204000771F8A95D2F7CB01BA010C94071041E0B3
:1020500050E060E070E004C0440F551F661F771F1A
:102060008A95D2F78091CA019091CB01A091CC01C1
:10207000B091CD01482B592B6A2B7B2BCB01BA0198
:102080000C94071041E050E060E070E004C0440FA1
:10209000551F661F771F8A95D2F74095509560951A
:1020A00070958091CA019091CB01A091CC01B09123
:1020B000CD01482359236A237B23CB01BA010C9419
:1020C000071041E050E060E070E004C0440F551F8D
:1020D000661F771F8A95D2F78091CA019091CB0134
:1020E000A091CC01B091CD01482759276A277B27C1
:1020F000CB01BA010C9407100F931F930091CA01F2
:102100001091CB012091CC013091CD01602B712B2E
:10211000822B932B1F910F910C9407100F931F93F9
:102120000091CA011091CB012091CC013091CD01D9
:1021300060237123822393231F910F910C94071026
:102140000F931F930091CA011091CB012091CC01F4
:102150003091CD0160277127822793271F910F911E
:102160000C94071008952FE0929F800D1124482FA2
:102170004695469546958770B1E001C0BB0F8A959C
:10218000EAF785E0489FA001112448565E4F80E0A1
:1021900090E070E0FA01E80FF91FA0819B01082E82
:1021A00002C0369527950A94E2F7217033272195CE
:1021B0002A272B232A27208301968530910551F762
:1021C00008952FE0929F800D1124682F66956695E3
:1021D0006695982F977085E0689FB0011124685626
:1021E0007E4F40E050E080E0FB01E40FF51F2081CE
:1021F00030E0092E02C0369527950A94E2F7217047
:102200003327042E01C0220F0A94EAF7822B4F5F76
:102210005F4F4530510541F70895CF92DF92EF921D
:10222000FF920F931F93CF93DF93EC01C090CE01E9
:10223000D090CF01E090D001F090D1018091CA01FF
:102240009091CB01A091CC01B091CD01C82AD92A9F
:10225000EA2AFB2A0FE110E0B701A601002E04C014
:1022600076956795579547950A94D2F740FD05C036
:102270000150110988F780E007C0BE01802F0E943D
:1022800091030197A9F3802FDF91CF911F910F91B7
:10229000FF90EF90DF90CF900895CF93DF93EC0104
:1022A0000E940D11BE010E949103DF91CF9108950C
:1022B0001F93CF93DF93EB0190915F01992321F05E
:1022C000CB010E944D1113C0882349F0CB010E941D
:1022D0000D11182F682FCE010E94B31004C0CB013E
:1022E0000E94E110182FBE01812F0E949103DF91FF
:1022F000CF911F9108958091D201859585958595FF
:1023000008958091D2018770089598E0899F900187
:102310001124622B6093D2010C9427104091D201BA
:10232000809584238093D201982F977069F450E0B0
:10233000282F332727FD30954217530729F085951D
:10234000859585950C94421008959091D2019770CF
:1023500081E009F480E00895E0910001F09101012D
:102360008091F6018083E0910001F091010180816C
:102370009091F501892B8083E0910001F09101019A
:1023800080819091F401892B80839091D3019923CE
:1023900081F0E0910001F09101018081892B80831F
:1023A00080910001909101010E94581281111092B8
:1023B000D30180910001909101010C944607809116
:1023C000F60108959091F601982B9093F6010895E7
:1023D00080959091F60198239093F60108951092BC
:1023E000F60108959091F501982B9093F5010895C9
:1023F00080959091F50198239093F501089510929E
:10240000F50108959091F401982B9093F4010895AB
:1024100080959091F40198239093F401089510927F
:10242000F40108958093D30108951092D301089583
:102430006DEE7EEF80E090E00E94621C60E082E042
:1024400090E00E94501C60E083E090E00E94501CED
:1024500060E084E090E00E94501C60E085E090E045
:102460000C94501C80E090E00E944A1C21E08D3EBC
:102470009E4F09F020E0822F089582E090E00C94B6
:10248000421C682F82E090E00C94501C83E090E0A6
:102490000C94421C682F83E090E00C94501C84E064
:1024A00090E00C94421C682F84E090E00C94501C47
:1024B00020E030E040E0FC01E20FF31F51815111B8
:1024C0004F5F2F5F3F4F2F313105A9F7842F0895BC
:1024D00020E030E04FEFFC01E20FF31F528156176E
:1024E00099F04F3F19F4511101C0422F2F5F3F4F18
:1024F0002E31310581F74F3F39F0FC01E40FF11D1A
:1025000047FDFA9562830895089520E030E0FC01CC
:10251000E20FF31F4281461301C012822F5F3F4F2B
:102520002E313105A1F70895262F2695269526955B
:102530002F3170F4FC01E20FF11D677021E030E0F3
:10254000062E01C0220F0A94EAF78181822B818333
:102550000895262F2695269526952F3178F4FC018F
:10256000E20FF11D677021E030E0062E01C0220F5E
:102570000A94EAF7209581812823218308952091E8
:102580000C01222329F02091200227FD0C949412A3
:102590000C94681220910C01222329F02091200232
:1025A00027FD0C94A9120C94851220E030E0FC0168
:1025B000E20FF31F11822F5F3F4F2F313105B9F723
:1025C000089580912602843021F11092F80120E4D0
:1025D00088E190E00FB6F894A895809360000FBE54
:1025E0002093600080E00E94710383B7817F846044
:1025F00083BF83B7816083BF7894889583B78E7FCC
:1026000083BF88E10FB6F894809360001092600059
:102610000FBE089508950895CF930E940A130E9453
:1026200072060E940B13C0E08C2F0E942B07892B8F
:1026300029F4CF5FC530C1F780E001C081E0CF91C0
:1026400008950E94B50B0E943A070C9471031F92E3
:102650000F920FB60F9211248F939F93AF93BF9356
:102660008091F801811113C080911C0290911D028C
:10267000A0911E02B0911F024196A11DB11D809331
:102680001C0290931D02A0931E02B0931F02BF91E3
:10269000AF919F918F910F900FBE0F901F90189543
:1026A00082E084BD93E095BD9AEF97BD80936E0064
:1026B00008952FB7F89480911C0290911D02A0916B
:1026C0001E02B0911F022FBF0895CF92DF92EF92AA
:1026D000FF920F931F932FB7F89440911C025091D3
:1026E0001D0260911E0270911F022FBF6A017B01C3
:1026F000EE24FF248C0120E030E0C016D106E20673
:10270000F30610F441505109481B590BCA011F919F
:102710000F91FF90EF90DF90CF90089578941F92E3
:102720000F920FB60F9211248F939F93AF93BF9385
:1027300080911C0290911D02A0911E02B0911F0277
:102740000196A11DB11D80931C0290931D02A093C0
:102750001E02B0931F02BF91AF919F918F910F9076
:102760000FBE0F901F90189581E08093E00080E2EB
:102770008093D8001092C9008FE19EE40197F1F791
:1027800000C0000087E090EBDC0180932F02909363
:102790003002A0933102B09332022CE088E190E045
:1027A0000FB6F894A895809360000FBE2093600048
:1027B000FFCFBF92CF92DF92EF92FF920F931F93C2
:1027C000CF93DF93B12C01E010E0E82EF12C8B2D9C
:1027D0000E942B076C01C0E0D0E098010C2E02C0D3
:1027E000220F331F0A94E2F72C213D21232B29F4D9
:1027F0002196CF30D10589F70AC06C2F7B2D80E060
:102800000E947703E816F90699F781E005C0B394B2
:1028100085E0B812DCCF80E0DF91CF911F910F915E
:10282000FF90EF90DF90CF90BF900895CF93C82F87
:102830008CE20E94D913882321F08C2FCF910C9425
:10284000D91380E0CF910895CF930E943212811165
:1028500002C00E941812C5E6C15049F00E947206DB
:102860008FE39CE90197F1F700C00000F5CF89E202
:102870000E94161481110DC18AE20E941614811162
:102880000E94181285E00E94161481110E94B41350
:102890000E943D128093F70187E00E94161488235E
:1028A00099F18BE10E941614882351F09091F70161
:1028B00091FB882780F921E0822780FB91F922C0D3
:1028C0008EE00E941614882351F09091F70192FB3C
:1028D000882780F921E0822780FB92F913C080E1EC
:1028E0000E9416149091F701882341F093FB8827EA
:1028F00080F921E0822780FB93F904C0892F80951D
:1029000080FB90F99093F7018091F7010E944112AA
:102910000E944F1290E0909321028093200280EE5B
:102920000E941614882341F080912002982F9095E0
:1029300090FB80F98093200289E30E94161488237B
:1029400059F09091200291FB882780F921E082279D
:1029500080FB91F99093200282EE0E941614882346
:1029600059F09091200292FB882780F921E082277C
:1029700080FB92F99093200286EE0E941614882321
:1029800059F09091200293FB882780F921E082275B
:1029900080FB93F99093200283EE0E941614882303
:1029A00059F09091200294FB882780F921E082273A
:1029B00080FB94F99093200285E30E9416148823EB
:1029C00059F09091200295FB882780F921E0822719
:1029D00080FB95F99093200281E30E9416148823CE
:1029E00059F09091200296FB882780F921E08227F8
:1029F00080FB96F99093200281E10E9416148823AF
:102A000059F09091200297FB882780F921E08227D6
:102A100080FB97F990932002809120020E9453122C
:102A200087E20E941614C82F8EE10E9416148111AD
:102A3000C2608FE10E9416148111C46080E20E947E
:102A400016148111C86081E20E9416148111C061C0
:102A500082E20E9416148111C06283E20E94161461
:102A60008111C06484E20E941614882311F0C068AA
:102A700002C0CC2329F08C2F0E944A126C2F03C075
:102A80000E944612682F70E080E090E0CF910C9495
:102A9000CC0FCF91089580911902089508950F9356
:102AA0001F93CF93DF9300D01F92CDB7DEB78C0179
:102AB0000E949017823011F0843021F583E08983E1
:102AC0001B830A8381E08093E9008FEF9091E800F7
:102AD000815095FD06C095ED9A95F1F700008111A2
:102AE000F5CF8091E80085FF0DC040E050E063E045
:102AF00070E0CE0101960E94AD178091E8008E77BC
:102B00008093E8000F900F900F90DF91CF911F916D
:102B10000F910895CF93DF9300D01F92CDB7DEB70A
:102B200020912602243031F522E029838058910932
:102B30009B838A8381E08093E9008FEF9091E80086
:102B4000815095FD06C095ED9A95F1F70000811131
:102B5000F5CF8091E80085FF0DC040E050E063E0D4
:102B600070E0CE0101960E94AD178091E8008E774B
:102B70008093E8000F900F900F90DF91CF91089510
:102B8000CF93DF93EC010E949017823019F08430CC
:102B900009F047C080910C018823E1F08091200268
:102BA00087FF18C082E08093E9008FEF9091E800E2
:102BB000815095FD06C095E19A95F1F700008111CD
:102BC000F5CF8091E80085FF2CC040E050E060E246
:102BD00070E017C081E08093E9008FEF9091E800EA
:102BE000815095FD06C095ED9A95F1F70000811191
:102BF000F5CF8091E80085FF14C040E050E068E028
:102C000070E0CE010E94AD178091E8008E7780932E
:102C1000E80080E2FE01A9EFB1E001900D928A95F3
:102C2000E1F7DF91CF91089580912502811109C0CC
:102C30000E943F190E949C198091E2008460809359
:102C4000E2000895109225020895089508950C94C5
:102C5000211342E061EC81E00E94B91842E261EC8C
:102C600082E00C94B91880912802833009F453C093
:102C700030F4813071F0823009F48CC008958A30CC
:102C800009F478C08B3009F45EC0893009F09AC02D
:102C900020C080912702813A09F094C08091E80019
:102CA000877F8093E80080912B0290912C02892BE2
:102CB00021F060E080E090E003C060E289EF91E005
:102CC00070E00E94F6178091E8008B778093E8000F
:102CD000089580912702813209F074C080912B02FF
:102CE00090912C02029708F06DC08091E800877FD8
:102CF0008093E8008091E80082FD05C08091260263
:102D00008111F8CF5FC08091F1008093190280910A
:102D1000E8008B7753C080912702813A09F052C0B6
:102D200080912B0290912C02892B09F04BC080914D
:102D3000E800877F8093E8008091E80080FFFCCF67
:102D400080910C0136C0809127028132D9F58091A3
:102D50002B0290912C02892BA9F58091E800877FA6
:102D60008093E8000E94EE188091290280930C0164
:102D70000C94B50B80912702813221F58091E800F7
:102D8000877F8093E8000E94EE1880912A0280934A
:102D90001A02089580912702813AA1F48091E800F7
:102DA000877F8093E8008091E80080FFFCCF8091CE
:102DB0001A028093F1008091E8008E778093E800FA
:102DC0000C94EE18089584B7877F84BF88E10FB60E
:102DD000F89480936000109260000FBE80E88093AA
:102DE0006100109261000E947E070E943F190E94BC
:102DF0009C198091E20084608093E20078940E94A4
:102E00001F1C0E94820782E091E00E94350780919A
:102E10002602853069F40E94E11280912402882301
:102E2000B1F30E940C13882391F30E949717EFCF00
:102E30000E948E07ECCF0C941D17292F33272330C7
:102E40003105A9F06CF42130310509F441C022307C
:102E5000310509F042C08BE390E020E232E04BC044
:102E600021323105F9F02232310539F136C0992786
:102E70008130910571F02CF4892B79F5ECE1F2E0C9
:102E80000DC08230910541F0039739F5E0EEF1E095
:102E900005C0EAE0F2E002C0E6EEF1E0849190E0E5
:102EA0009F0129C061157105E9F061307105A9F430
:102EB00089E090E02BE432E01EC061157105B9F0A5
:102EC0006130710551F489E390E02DE632E013C0E2
:102ED00082E190E02BE532E00EC080E090E020E05F
:102EE00030E009C089E090E022E332E004C080E4F1
:102EF00090E026EA32E0FA013183208308950895B4
:102F0000CF93C82F0E947F17C0931B02CF910895C3
:102F100080912602843011F482E0089581E00895C2
:102F200080911B02811102C00C948817089580E1E2
:102F300089BD82E189BD09B400FEFDCF8091D80032
:102F40008F7D8093D8008091E00082608093E000C4
:102F50008091E00081FDFCCF0895CF92DF92EF9247
:102F6000FF920F931F93CF93DF937C018B01EA01B4
:102F70000E940F19811131C0209731F08881998109
:102F8000081B190BE80EF91EC12CD12C01151105D7
:102F900019F18091E80085FD14C08091E8008E77DA
:102FA0008093E800209741F0888199818C0D9D1DC8
:102FB0009983888385E011C00E940F19882331F31B
:102FC0000CC0F70181917F018093F100015011093C
:102FD000FFEFCF1ADF0ADACF80E0DF91CF911F91A8
:102FE0000F91FF90EF90DF90CF90089520912D02E8
:102FF00030912E022617370748F06115710539F414
:103000002091E8002E772093E80001C0B901FC016F
:1030100020E061157105B9F180912602882309F439
:1030200040C0853009F43FC08091E80083FD3DC079
:103030008091E80082FF06C08091E80082FF26C0F0
:1030400080E008958091E80080FFE3CF2091F300B5
:103050008091F20090E0922B6115710551F088305B
:10306000910538F421912093F10061507109019686
:10307000F3CF21E0089709F020E08091E8008E77F7
:103080008093E800C6CF2111C7CFD6CF809126020A
:10309000882339F0853039F08091E80083FFCCCF68
:1030A00004C082E0089583E0089581E008952091AE
:1030B0002D0230912E022617370748F06115710551
:1030C00039F42091E8002E772093E80001C0B9017F
:1030D000FC0120E061157105C1F180912602882371
:1030E00009F441C0853009F440C08091E80083FDB7
:1030F0003EC08091E80082FF06C08091E80082FF18
:1031000027C080E008958091E80080FFE3CF209100
:10311000F3008091F20090E0922B6115710559F057
:103120008830910540F424912093F100319661504C
:1031300071090196F2CF21E0089709F020E0809113
:10314000E8008E778093E800C5CF2111C6CFD5CF98
:1031500080912602882339F0853039F08091E8008B
:1031600083FFCBCF04C082E0089583E0089581E01F
:103170000895982F973058F59093E900981739F0F3
:103180007091EC002091ED005091F00003C0242FCD
:10319000762F50E021FF19C03091EB003E7F309335
:1031A000EB003091ED003D7F3093ED003091EB006E
:1031B00031603093EB007093EC002093ED0050935E
:1031C000F0002091EE0027FF07C09F5FD3CF8F70E4
:1031D0008093E90081E0089580E0089580912702BE
:1031E00087FD05C08091E80080FF0EC012C080916D
:1031F000E80082FD05C0809126028111F8CF089574
:103200008091E8008B7708C0809126028111EACF77
:1032100008958091E8008E778093E800089580916A
:10322000E4009091E50045E62091EC0020FF21C0EC
:103230002091E80020FD21C020912602222389F060
:10324000253089F02091EB0025FD0FC02091E4008E
:103250003091E5002817390739F3415041F0C90191
:10326000E3CF82E0089583E0089581E0089584E04B
:1032700008952091E80022FFDFCF80E008950E94AA
:10328000AD190E94B519E0EEF0E080818160808385
:10329000E8EDF0E080818F77808319BCA7EDB0E086
:1032A0008C918E7F8C9380818F7E808310922502FB
:1032B00008950F931F93CF93DF930E94AD190E943F
:1032C000B519C8EDD0E088818F77888388818068C0
:1032D000888388818F7D888319BC10922602109282
:1032E0002202109224021092230200EE10E0F80154
:1032F00080818B7F808388818160888342E060E069
:1033000080E00E94B918E1EEF0E080818E7F80833A
:10331000E2EEF0E08081816080838081886080833C
:10332000F80180818E7F8083888180618883DF912E
:10333000CF911F910F910895E8EDF0E080818F7E8D
:103340008083E7EDF0E080818160808384E082BF4C
:1033500081E0809325020C945919E8EDF0E080811A
:103360008E7F80831092E20008951092DA0010920E
:10337000E10008951F920F920FB60F9211242F9320
:103380003F934F935F936F937F938F939F93AF93ED
:10339000BF93EF93FF938091E10082FF0BC0809178
:1033A000E20082FF07C08091E1008B7F8093E10003
:1033B0000E941E1C8091DA0080FF1FC08091D800FF
:1033C00080FF1BC08091DA008E7F8093DA008091AD
:1033D000D90080FF0DC080E189BD82E189BD09B4BB
:1033E00000FEFDCF81E0809326020E94141605C0E6
:1033F00019BC109226020E9422168091E10080FFE3
:1034000019C08091E20080FF15C08091E2008E7F9C
:103410008093E2008091E20080618093E2008091DD
:10342000D80080628093D80019BC85E08093260282
:103430000E9426168091E10084FF30C08091E20056
:1034400084FF2CC080E189BD82E189BD09B400FE02
:10345000FDCF8091D8008F7D8093D8008091E100CE
:103460008F7E8093E1008091E2008F7E8093E20066
:103470008091E20081608093E200809122028823A3
:1034800011F084E007C08091E30087FF02C083E071
:1034900001C081E0809326020E9427168091E100FE
:1034A00083FF29C08091E20083FF25C08091E10065
:1034B000877F8093E10082E08093260210922202AF
:1034C0008091E1008E7F8093E1008091E2008E7F09
:1034D0008093E2008091E20080618093E20042E00C
:1034E00060E080E00E94B9188091F00088608093CD
:1034F000F0000E942516FF91EF91BF91AF919F912F
:103500008F917F916F915F914F913F912F910F908C
:103510000FBE0F901F9018951F920F920FB60F922B
:1035200011242F933F934F935F936F937F938F93C8
:103530009F93AF93BF93CF93EF93FF93C091E90015
:10354000CF708091EC001092E9008091F000877FAD
:103550008093F00078940E94C81A1092E90080913C
:10356000F00088608093F000C093E900FF91EF9134
:10357000CF91BF91AF919F918F917F916F915F910B
:103580004F913F912F910F900FBE0F901F90189564
:103590001F93CF93DF93CDB7DEB7AA970FB6F894FA
:1035A000DEBF0FBECDBFE7E2F2E08091F100819374
:1035B00022E0EF32F207C9F70E9433168091E8004B
:1035C00083FF24C12091270230912802832F90E0AD
:1035D0008A30910508F01AC1FC01E556FF4F0C94A2
:1035E0003C1C203821F0223809F010C108C080911D
:1035F000230290912402992389F082600FC0809168
:103600002B028F70873008F001C18093E900809110
:10361000EB0085FB882780F91092E9009091E80083
:10362000977F9093E8008093F1001092F100CCC056
:10363000822F8D7F09F0EAC0222319F0223061F039
:10364000E5C080912902813009F0E0C0333009F0F3
:1036500080E0809324022AC080912902811126C033
:1036600020912B022F708FEF820F863008F0CEC092
:103670002093E9008091EB0080FF18C08091EB005F
:10368000333011F4806210C080618093EB0081E0E0
:1036900090E001C0880F2A95EAF78093EA00109223
:1036A000EA008091EB0088608093EB001092E900C3
:1036B0008091E800877F8093E8000E94EE18A6C002
:1036C0002111A4C0109129021F778091E300807816
:1036D000812B8093E3008091E800877F8093E8004E
:1036E0000E94EE188091E80080FFFCCF8091E300FB
:1036F00080688093E300112311F083E001C082E031
:103700008093260283C02058223008F07FC0809129
:10371000290290912A028C3D23E0920779F583E0FB
:103720008A838AE289834FB7F894DE01139620E0FA
:103730003EE051E2E32FF0E050935700E49120FF88
:1037400003C0E295EF703F5FEF708E2F90E0EA309C
:1037500010F0C79601C0C0968D939D932F5F2431C2
:1037600049F74FBF8091E800877F8093E8006AE2C5
:1037700070E0CE0101960E94F61715C060912B02F1
:1037800070912C02AE014F5F5F4F0E941B17009794
:10379000E9F12091E800277F2093E800BC018981AE
:1037A0009A810E9457188091E8008B778093E800F7
:1037B0002DC0203859F58091E800877F8093E8007C
:1037C000809122028093F1008091E8008E7773CF80
:1037D00021111CC0909129029230C0F48091E80020
:1037E000877F8093E800909322020E94EE188091D8
:1037F0002202811104C08091E30087FF02C084E0AF
:1038000001C081E0809326020E9429168091E80081
:1038100083FF0AC08091E800877F8093E800809151
:10382000EB0080628093EB00AA960FB6F894DEBF9F
:103830000FBECDBFDF91CF911F9108950895CF9313
:10384000809126028823B1F08091E9008F709091D9
:10385000EC0090FF02C090E801C090E0C92FC82B97
:103860001092E9008091E80083FD0E94C81ACF7091
:10387000C093E900CF910895EE0FFF1F0590F491DA
:10388000E02D0994F999FECF92BD81BDF89A992750
:1038900080B50895A8E1B0E042E050E00C946A1CC5
:1038A000262FF999FECF92BD81BDF89A019700B4F9
:1038B000021639F01FBA20BD0FB6F894FA9AF99A99
:1038C0000FBE08950196272F0E94511C0C94501C86
:1038D000DC01CB01FC01F999FECF06C0F2BDE1BDD0
:1038E000F89A319600B40D9241505040B8F70895BF
:0438F000F894FFCF7A
:1038F400D4014B15C0154E158A154F1501F5F4F179
:10390400F03390919293959496973435366667F791
:02391400F600BB
:00000001FF
