:100000000C9409030C944D030C944D030C944D0374
:100010000C944D030C944D030C944D030C944D0320
:100020000C944D030C944D030C9470270C944228AF
:100030000C94EC1D0C944D030C944D030C944D0347
:100040000C944D030C944D030C944D030C944D03F0
:100050000C944D030C94531E0C944D030C944D03BF
:100060000C944D030C944D030C944D030C944D03D0
:100070000C944D030C944D030C944D030C944D03C0
:100080000C944D030C944D030C944D030C944D03B0
:100090000C944D030C944D030C944D030C944D03A0
:1000A0000C944D030C944D030C944D033004360412
:1000B0003A043D044104450449044D0452045604E5
:1000C0005A045E046104650469046D0471047604D5
:1000D000AD13AD13E713E71326144814DE15DE1530
:1000E0008E14DE1535153515AC15B315DE15D9157D
:1000F0004215421542154215421542154215421548
:100100004215421542154215421542154215421537
:10011000541564156B1572157C15721672168516BA
:1001200085167B168516851685167216721681162B
:10013000851685168116A728CE28BC29CE28BC296D
:1001400016293929BC298F299E2907634236B79B76
:10015000D8A71A39685618AEBAAB558C1D3CB7CC27
:100160005763BD6DEDFD753EF6177231BF0000009F
:10017000803F05A84CCDB2D44EB93836A9020C50F8
:10018000B9918688083CA6AAAA2ABE000000803F32
:1001900000F000201E001F0020002100220023008C
:1001A00024002500260027002D002E0000002A0034
:1001B0002B00000014001A000800150017001C0096
:1001C00018000C00120013002F003000310039001D
:1001D000000004001600070009000A000B000D00D3
:1001E0000E000F003300340028000000E100000082
:1001F0001D001B000600190005001100100036004C
:10020000370038000000E5000000E000E3000000D7
:10021000E2002C0000002C0000002C000000E60092
:10022000025100000151E40035003A003B003C005F
:100230003D003E003F0040004100420043004400BA
:10024000450001004C0001000000BA5CBB5CBD5CD5
:10025000BE5CBF5CC05CC15CC25C0100010001000F
:100260000100005C0100000001000100010001002C
:100270000100010001000100010001000100010076
:1002800000000100010001000100B55CB75CB65C34
:10029000B85C010001000100010000000100010044
:1002A0000100010000000100010000000100000049
:1002B0000100000001000100010001000100010037
:1002C000013002300330043005300630073008308A
:1002D00009300A300B300C30010001000100000031
:1002E0000100010001000100010001000100010006
:1002F00001000100010001000100010000000100F7
:1003000001000100010001000100010001000100E5
:1003100001000100010000000100010001000100D6
:1003200001000100010001000100010001000100C5
:1003300000000100010001000100000001000100B7
:1003400000000100000001000000010001000100A8
:10035000010001006801F000B40078005A007F3FFE
:100360001F643214643214783C1E1E140A05000007
:10037000000000010101010101010101020202026C
:10038000020202020203030303030303030404043F
:100390000404040505050505060606060607070705
:1003A00007080808080909090A0A0A0A0B0B0B0CB6
:1003B0000C0C0D0D0D0E0E0F0F0F10101111111250
:1003C0001213131414151516161717181819191ACD
:1003D0001A1B1C1C1D1D1E1F1F202021222223242E
:1003E000252526272728292A2B2B2C2D2E2F2F3069
:1003F000313233343536363738393A3B3C3D3E3F7F
:100400004041424344464748494A4B4C4D4F505166
:100410005253555657585A5B5C5E5F606263646620
:1004200067696A6C6D6E707173747678797B7C7EA7
:100430008081838486888A8B8D8F91929496989AF6
:100440009B9D9FA1A3A5A7A9ABADAFB1B3B5B7B90C
:10045000BBBDBFC1C4C6C8CACCCFD1D3D6D8DADCE5
:10046000DFE1E4E6E8EBEDF0F2F5F7FAFCFF040378
:10047000300000000A0344005A003600300000003B
:1004800010034B0042004400460061006E00730000
:1004900000000403090409026D00040100A0FA0928
:1004A00004000001030101000921110100012240A3
:1004B000000705810308000A090401000103010285
:1004C00000092111010001224D00070582030800E7
:1004D0000A090402000103000000092111010001C2
:1004E0002236000705830308000A090403000103FC
:1004F00000000009211101000122390007058403D1
:100500002000011201100100000008EDFE60220130
:10051000000102030105010906A101050719E029EF
:10052000E7150025019508750181020508190129C3
:10053000059505750191029501750391010507194E
:100540000029F71500250195F875018102C0050104
:100550000980A10185021601002603001A81002AE4
:100560008300751095018100C0050C0901A101856A
:1005700003160100269C021A01002A9C02751095A0
:10058000018100C005010902A1010901A1000509BD
:1005900019012905150025019505750181029501AF
:1005A000750381010501093009311581257F950207
:1005B0007508810609381581257F95017508810622
:1005C000050C0A38021581257F950175088106C042
:1005D000C005010906A101050719E029E715002555
:1005E00001950875018102950175088101050819B9
:1005F0000129059505750191029501750391010584
:1006000007190029FF150026FF00950675088100CF
:10061000C00011241FBECFEFDAE0DEBFCDBF04B6AD
:1006200003FE24C08091A7029091A802A091A90284
:10063000B091AA028730904BA740B04BB9F410920A
:10064000A7021092A8021092A9021092AA0214BE48
:1006500084B7877F84BF88E10FB6F89480936000E9
:10066000109260000FBEE0E0F8E3099511E0A0E011
:10067000B1E0E8E8FBE502C005900D92AE33B107AA
:10068000D9F712E0AEE3B1E001C01D92A73AB1077D
:10069000E1F70E949A240C94C22D0C9400000C9453
:1006A000B309229A2A9A08950E94B2090C94510320
:1006B0000C94CA06CF93DF93EC01611120C00E9415
:1006C0008A1C282F227220933E013A8180910201D8
:1006D00090910301332341F0222311F065E301C01F
:1006E00069E20E947F1D07C0222311F065E301C06B
:1006F00069E20E948A1DDF91CF910C94571CDF9113
:10070000CF91089581E0089581E008950C948403C9
:100710000E9460162FEF84E39CE0215080409040BF
:10072000E1F700C000000C94791EFF920F931F9315
:10073000CF93DF938C01FC01C081D1818091930123
:10074000811113C08281882349F0CE010E94B81B19
:10075000F82E682FCE010E945E1B04C0CE010E94BD
:100760008C1BF82EBE018F2D04C0CE010E94B81B39
:10077000BE010E94D006EC01B8010E9486038823C6
:1007800009F491C2B801CE010E946609882309F4D8
:100790008AC2C23CFCE5DF0741F4F801828188236C
:1007A00009F481C20E94140D7EC2C33C8CE5D807B7
:1007B00008F039C1CB3B9CE5D90761F4F80182818F
:1007C000882309F470C20E948A1C8272E1F00E94A0
:1007D000B50D69C2CC3BECE5DE07C0F0CE3B9CE535
:1007E000D90709F4F1C008F003C1CC3BFCE5DF07F1
:1007F00009F0F2C0F8018281882309F454C20E94F2
:100800008A1C827221F30E94AB0D4DC2C531FCE5FA
:10081000DF0708F0A4C0C2308CE5D80708F478C020
:10082000F8018281882309F47FC00E94E91C8111AC
:1008300002C00E94C31C0E94061D90E09093980283
:1008400080939702FE01E350FC45E231F10520F46C
:10085000EA5AFF4F0C94692D80919702816003C082
:10086000809197028260809397024BC0809197029B
:100870008460F9CF8091970213C0809197028061C4
:10088000F2CF809197028062EECF809197028064D0
:10089000EACF809197028068E6CF809197028460CA
:1008A0008860E1CF809197028E7FDDCF80919702A3
:1008B0008D7FD9CF809197028B7FD5CF8091970282
:1008C00013C0809197028F7ECECF809197028F7D4B
:1008D000CACF809197028F7BC6CF809197028F7786
:1008E000C2CF809197028B7F877FBDCF9091970277
:1008F00097FB882780F921E0822780FB97F9909366
:100900009702809197020E940A1D0E946016CBC137
:10091000C1159CE5D90781F0C130DC45A9F081E023
:100920008093440180934501C801DF91CF911F91CD
:100930000F91FF900C948203F8018281882309F4BF
:10094000B2C10E948803AFC1F8018281882309F4F3
:10095000AAC180912B02816080932B02A4C1C53172
:10096000FCE5DF0729F50E948A1C382FF801228157
:100970008091020190910301222371F03A7A21E0E3
:1009800009F420E020933F01222311F065E301C028
:1009900069E20E947F1D09C020913F01222311F0CE
:1009A00065E301C069E20E948A1D0E94571C7BC159
:1009B000CA3BDC4509F0B3CFF8018281882309F4F2
:1009C00072C10E94F20D6FC1F8018281882309F47F
:1009D0006AC10E94A50C67C1CD3BDC4509F09FCFE1
:1009E000F8018281882309F45EC10E948C0C5BC1EE
:1009F000F8018281C03CFCE5DF0731F4882309F46B
:100A000052C10E94DF0C4FC1C13CDC4530F4882349
:100A100009F449C10E94C40C46C1882309F443C1AA
:100A20000E94F90C40C1C93CECE5DE0749F4F8012D
:100A30008281882309F437C188E10E942E0D33C1D9
:100A4000CA3CFCE5DF0708F088C0C53C8CE5D80748
:100A5000B1F4F8018281882309F425C10E94590B61
:100A6000663071058105910540F00E94590B683090
:100A700071058105910508F4C6CE86E0DECFC63C3F
:100A80009CE5D90728F5C33CECE5DE0739F4F8010D
:100A90008281882309F407C181E0CFCFC43CDC45C3
:100AA00009F03DCFF8018281882309F4FCC00E943F
:100AB000590B623071058105910540F00E94590B78
:100AC000653071058105910508F49DCE82E0B5CFB2
:100AD000F8018281C73CFCE5DF07A1F4882309F413
:100AE000E2C00E94590B6F3071058105910540F0FD
:100AF0000E94590B643171058105910508F483CE7C
:100B00008FE09BCFC83CDC45A0F4882309F4CBC020
:100B10000E94590B693071058105910540F00E94D2
:100B2000590B6E3071058105910508F46CCE89E092
:100B300084CF882309F4B7C00E94590B6531710531
:100B40008105910540F00E94590B673171058105BF
:100B5000910508F458CE85E170CFCC3CECE5DE077A
:100B600039F5F8018281882361F0109245010E94D5
:100B70001E1E909343018093420180E20E945D1308
:100B800092C08091450181110FC0809142019091E6
:100B900043010E942A1E883C910530F487E20E949E
:100BA000041287E20E94FC1280E20E9464137BC060
:100BB000CD3CFCE5DF0708F041C0CA3C8CE5D80716
:100BC000B1F4F8018281882309F46DC00E94590BA9
:100BD000693171058105910540F00E94590B62321F
:100BE00071058105910508F40ECE89E126CFCB3C35
:100BF000DC4509F094CEF8018281882351F01092EF
:100C000044010E941E1E909341018093400182E0A6
:100C1000B5CF8091440181110FC080914001909126
:100C200041010E942A1E883C910530F486E20E9410
:100C3000041286E20E94FC1282E0B7CFC03DECE5D0
:100C4000DE0731F4F8018281882369F180E009C070
:100C5000C13DFCE5DF0741F4F8018281882319F1E9
:100C600082E00E9436251FC0CD3CDC4509F057CEFE
:100C7000F8018281811179CF80914501811194CF52
:100C800080914201909143010E942A1E883C910567
:100C900008F08ACF80E20E94641388E20E94041266
:100CA00088E20E94FC1280E0DF91CF911F910F91AA
:100CB000FF9008950C944F03CF92DF92EF92FF9232
:100CC000863030F4811105C0909180009F7D04C072
:100CD00085E090918000906290938000282F30E012
:100CE000AFEFBFEF0E94002D25E030E040E050E084
:100CF0000E94472DC9012C3764E1360728F469E0CA
:100D000070E00E941F2D29C0DA01C9018A50974D59
:100D1000AF4FBF4F6627782F892F9A2F25EF38E2E4
:100D200041E050E00E94472D69017A01CA01B901F2
:100D30000E940F2D9B01AC01C701B6010E940F2D2F
:100D4000BB27A92F982F872F009721E0A207B10575
:100D500011F0BC0102C06FEF7FEF70938B006093C6
:100D60008A00FF90EF90DF90CF900895269A2E98FA
:100D700082E28093800089E1809381008FEF9FEF72
:100D800090938700809386000C941E220E94B606E2
:100D90000C94540308950C94580380E090E0089557
:100DA0009FE0799FF00111249BE4899FE00DF11DE4
:100DB0001124E60FF11DEE0FFF1FEE56FE4F859139
:100DC00094910895880F991F80579E4FFC0185913B
:100DD00094910895CF93DF930E94D0060E94C60895
:100DE000EC01811521E5920708F043C0811530E53B
:100DF000930708F021C1883E910508F5803E9105D2
:100E000008F0C0C1883A910578F4853A910508F058
:100E10009EC08130910509F4B5C108F46CC18430DD
:100E2000910508F0AFC167C18D3B910508F49AC0E8
:100E3000803C910508F45FC1805C9109ECC0C1154C
:100E400080E3D80780F4C11520E2D20708F0E1C0A2
:100E5000C03FD10508F44FC1CF3FD10511F008F0D4
:100E600091C1D0658FC1C11530E4D30708F0E1C04E
:100E7000D6C0C11589E5D80740F5C11528E5D207C8
:100E800008F025C1C11534E5D30778F4C11583E511
:100E9000D80708F002C1C11522E5D20708F0E8C062
:100EA000DC2FCC27C16FD06A6DC1C11535E5D307E2
:100EB00008F408C1C11586E5D80708F01CC1CF7138
:100EC000DD27DC2FCC27D0625DC1C53B2CE5D207E6
:100ED00009F408C1D8F4C33B8CE5D80709F4FCC079
:100EE00008F0FDC0C1153AE5D30708F004C18C2F06
:100EF0008F70806E90E0906A34E0D695C7953A95F1
:100F0000E1F7CF709C013C2BE9013CC1C83B8CE56B
:100F1000D80709F4EDC060F4C63B3CE5D30709F4FB
:100F2000E4C0C73BDC4509F0E6C0C0E0D2ED2AC111
:100F3000CE0190568115904208F0DDC08D2F8F7143
:100F40000E944209DD27D0628F71D82B1BC1853AE0
:100F5000910509F4D3C0863A910509F4D2C0C3E8DB
:100F6000D0E410C1883A910509F4CEC0893A9105C0
:100F700009F4CDC08A3A910509F4CCC08B3A9105A9
:100F800009F4CBC08C3A910509F4CAC08B3B91059A
:100F900009F4C9C08C3B910509F4C8C08D3A91058C
:100FA00009F4C7C0803B910509F4C6C08E3A91058B
:100FB00009F4C5C08F3A910509F4C4C0813B91057D
:100FC00009F4C3C0823B910509F4C2C0833B91057B
:100FD00009F4C1C0843B910509F4C0C0853B91056B
:100FE00009F4BFC0863B910509F4BEC0873B91055B
:100FF00009F4BDC0883B910509F4BCC0893B91054B
:1010000009F4BBC08A3B910509F0BAC0CAE2D6E434
:10101000B9C0CE019F700E94E206EC01B3C0CE01C0
:101020009927D3FF03C0EC01D86CACC0EC01D06CA5
:10103000A9C0DF70D06AA6C0282F237081E090E09D
:1010400002C0880F991F2A95E2F79C689E01E4E090
:1010500036952795EA95E1F72370922BCF70C695C8
:10106000C69530E2C39FE0011124C82BD92B8AC05A
:101070008C2F8695869520E2829FC00111249E01C7
:1010800023703327C1E0D0E002C0CC0FDD1F2A95CA
:10109000E2F7C82BD92BDC6875C08C2F8695869516
:1010A00030E2839FC00111249E0123703327C1E0E9
:1010B000D0E002C0CC0FDD1F2A95E2F7C82BD92B58
:1010C000DA6860C0DC2FCC27C46FD06A5BC0DC2F2D
:1010D000CC27C06FD06A56C0C0E0D4ED53C0C0E08A
:1010E000D5ED50C0C0E0D1ED4DC0C0E0D0ED4AC05C
:1010F000C0E0D3ED47C0C0E0D0E044C0C1E8D0E4D8
:1011000041C0C2E8D0E43EC0C2EED4E43BC0C9EE68
:10111000D4E438C0CAEED4E435C0C5EBD4E432C060
:10112000C6EBD4E42FC0C3EBD4E42CC0C4EBD4E4AE
:1011300029C0C7EBD4E426C0CCECD4E423C0CDEC6A
:10114000D4E420C0C3E8D5E41DC0CAE8D5E41AC081
:10115000C2E9D5E417C0C4E9D5E414C0C1E2D6E4BD
:1011600011C0C3E2D6E40EC0C4E2D6E40BC0C5E2AF
:10117000D6E408C0C6E2D6E405C0C7E2D6E402C0A1
:10118000C0E0D4E4CE01DF91CF910895823891057B
:1011900049F1B0F48133910509F459C048F489321A
:1011A000910509F44FC08A32910509F455C008959C
:1011B0008533910509F441C08933910599F008956B
:1011C000833E910531F138F4803E910591F0823EE5
:1011D0009105A9F00895863E910501F1873E91059C
:1011E00039F108952091970220FD3BC021FD39C0BF
:1011F00008958091970280FF34C089E341C08091B7
:10120000970282FF32C08091970284FF2CC080E059
:1012100037C08091970282FD28C0F5CF8091970258
:1012200083FF25C08091970284FDF1CF87EE28C00F
:101230008091970283FD1BC0F5CF8091970285FFB7
:1012400018C019C08091970285FF15C012C0809107
:10125000970286FF12C013C08091970286FF0FC0CD
:101260000CC080EE0DC083EE0BC082EE09C086EE8E
:1012700007C085E305C089E203C081E301C08AE2BB
:1012800090E008959091970292FF0DC0282F287149
:10129000283019F4877F846006C0282F24712430F9
:1012A00011F48B7F886093FF0DC0282F287128319F
:1012B00019F4877E846106C0282F2471243111F42B
:1012C0008B7E886194FD877E08950895CF93DF9388
:1012D000EC01FB018281811102C081E040C080915C
:1012E0005301811125C0C631DC45B9F70E9465095B
:1012F00081E0809353010E941E1E909352018093BF
:10130000510110924601109248011092470110922B
:101310004A011092490110924C0110924B01109217
:101320004E0110924D011092500110924F0116C0C3
:1013300080915101909152010E942A1E883C910592
:1013400060F680914601E82FF0E0EE0FFF1FE95BA9
:10135000FE4FD183C0838F5F8093460180E0DF9191
:10136000CF9108950895089585B7806885BF85B7A2
:10137000806885BFA5E1B1E021E030E08D91E82FE4
:10138000E295EF70F0E041A18F70B90102C0660FE5
:10139000771F8A95E2F7CB01462B41A392A1982BA8
:1013A00092A371E0A432B70749F7A4E2B1E021E0CB
:1013B00030E08D91E82FE295EF70F0E041A18F7061
:1013C000B90102C0660F771F8A95E2F7CB01962F0D
:1013D0009095492341A392A1982B92A371E0A93241
:1013E000B70739F7EEE5F1E0A4E5B1E0119211920B
:1013F0001D921D9281E0E836F807C1F70C94C606ED
:101400002F923F925F926F927F928F929F92AF92B4
:10141000BF92CF92DF92EF92FF920F931F93CF93E1
:10142000DF9305E111E0212C312CEE24E394F12C23
:1014300066246394E80189918E01E82FE295EF70AC
:10144000F0E021A18F70A70102C0440F551F8A95BB
:10145000E2F7CA01242B21A322A1342F30952323A4
:1014600022A350EA5A95F1F76701022C02C0CC0C76
:10147000DD1C0A94E2F746018094909424E231E066
:10148000A4E5B1E0712C5D014D915C911197E901EA
:1014900059909E01652D62956F7070E0EB0168A117
:1014A00070E0D52DDF700D2E02C0759567950A94FA
:1014B000E2F760FD04C0BA016C297D2903C0BA01BE
:1014C0006821792111967C936E931296E5016881CB
:1014D00079814617570711F077247394D1E02932A8
:1014E0003D0789F691A1982B91A392A1982B92A3E5
:1014F000772041F0609268010E941E1E90936A015D
:1015000080936901EFEF2E1A3E0AFFE02F16310497
:1015100009F090CF809168018823B1F08091690132
:1015200090916A010E942A1E069770F0E4E5F1E0AE
:10153000AEE5B1E0819191918D939D9321E0EE35DF
:10154000F207C1F7109268010E945A0681E0DF910C
:10155000CF911F910F91FF90EF90DF90CF90BF90B0
:10156000AF909F908F907F906F905F903F902F9063
:101570000895E82FF0E0EE0FFF1FE25AFE4F808142
:10158000918108950895DF92EF92FF920F931F9338
:10159000CF93DF93662309F44AC0E42FF0E0AFEF66
:1015A000B0E0A61BB109BF01A69FE001A79FD00D27
:1015B000B69FD00D1124FD2FDD2E7B01ED1AF10811
:1015C0000CE310E0B8010E941F2DEB01BC01E69E68
:1015D000C001E79E900DF69E900D1124B8010E9467
:1015E0001F2DC230D105B1F040F4209779F021973A
:1015F00009F58F2FD42E461B20C0C430D10599F099
:1016000068F02597B9F4842F861B17C08F2FD62E2C
:10161000DF0E13C0862F8F0FD42E03C0D42ED61A00
:10162000842F4F2F0AC0842F462F4F0F06C0842FC0
:10163000D42E03C080E0D12C40E0E42FF0E0E2594A
:10164000FC4F4491ED2DF0E0E259FC4F9491E82FCE
:10165000F0E0E259FC4FE491D90111964C931197B7
:101660009C931296EC93DF91CF911F910F91FF9075
:10167000EF90DF90089588E090E00C94822DAB010C
:10168000BC0188E090E00C94A02D83E08093590287
:1016900010925A028FEF80935B0280935C026091FC
:1016A000590270915A0280915B0290915C020C94F5
:1016B0003F0B6091590260FF06C066956F7370E042
:1016C00080E090E0089560E070E0CB0108958091A3
:1016D000590280FF06C060E170E081E692E00C9460
:1016E000AD10E3E6F2E0DF0111971C92DF011297E3
:1016F0001C921082339682E0E339F807A1F7EBCF12
:101700009091590290FF10C0E3E6F2E0DF011197DB
:101710008C93DF0112976C934083339692E0E33908
:10172000F907A1F70C94670B0895CF92DF92EF921F
:10173000FF920F931F93CF93DF9300D01F92CDB7EB
:10174000DEB7F82EC92ED62EE42E00915902109144
:101750005A0220915B0230915C0200935D0210936B
:101760005E0220935F02309360028091590280FFF5
:101770001EC09E012F5F3F4F8F2D0E94C30A809194
:101780005D02F0FA87F980935D02F69420915E0283
:1017900020782F29C0FA27F920935E02D0925F02A9
:1017A000E09260024B8169818A810E94800B0F90D8
:1017B0000F900F90DF91CF911F910F91FF90EF90BD
:1017C000DF90CF9008958F929F92AF92BF92CF9269
:1017D000DF92EF92FF920F931F93CF93DF93EC0171
:1017E000862E942E8091590280FF89C0982F9E7773
:1017F000923021F4CE010E94950B57C0E82FE69558
:10180000EF739EE39E0F9F73943018F490905C02E8
:101810004CC09AE39E0F9F73993070F4881F8827FD
:10182000881F90915A02292F220FC22FC82B97FB95
:10183000992790F9D92F39C087E28E0F8F738A309C
:10184000A0F5F0E07997E0FF02C04FEF01C041E062
:10185000EE7FEC5AFC4F2591349184E03695279524
:101860008A95E1F742036001439FD00C11247E0169
:1018700088E9E81A8EEFF80A01E612E098E6A92E48
:10188000BB24B394C701B5010E941F2D9801492DB7
:10189000682D0E94C30AEC0CFD1C0D5F1F4F92E0E7
:1018A0000139190779F70E94670B809159029C2F23
:1018B000C0FB87F980935902969580915A028078EF
:1018C000892BD0FB87F980935A0280925B02909219
:1018D0005C026091590270915A0280915B02909172
:1018E0005C02DF91CF911F910F91FF90EF90DF90FD
:1018F000CF90BF90AF909F908F900C943F0BDF9153
:10190000CF911F910F91FF90EF90DF90CF90BF90FC
:10191000AF909F908F90089520915902221F222707
:10192000221F30915A02432F440F842F822B37FB02
:10193000992790F9089668E671E00E94332D40914E
:101940005C0260915B020C94E30B20915902221F10
:101950002227221F30915A02432F440F842F822BBB
:1019600037FB992790F9883091051CF4805A9E4FD7
:1019700001C0089768E671E00E94332D40915C0237
:1019800060915B020C94E30B60915B02862F90E008
:10199000883F910514F4685F01C06FEF8091590290
:1019A000881F8827881F90915A02292F220F97FBA2
:1019B000992790F940915C02822B0C94E30B609183
:1019C0005B02862F90E0089714F0685001C060E039
:1019D00080915902881F8827881F90915A02292FC9
:1019E000220F97FB992790F940915C02822B0C946F
:1019F000E30B40915C02842F90E0883F910514F442
:101A0000485F01C04FEF80915902881F8827881FC7
:101A100090915A02292F220F97FB992790F96091F4
:101A20005B02822B0C94E30B40915C02842F90E0CC
:101A3000089714F0485001C040E080915902881F77
:101A40008827881F90915A02292F220F97FB9927E8
:101A500090F960915B02822B0C94E30B90915902F8
:101A600090FF44C09178811102C0926003C083321C
:101A700020F094649093590205C08F73880F892BCE
:101A8000809359026091590270915A0280915B02D1
:101A900090915C020E943F0B80915902982F9E7793
:101AA000923019F41092800110C0982F96959F7370
:101AB0002EE3290F2F73273120F491E090938001BA
:101AC00004C0995D9F739A3068F3881F8827881F28
:101AD00090915A02292F220F97FB992790F9409154
:101AE0005C0260915B02822B0C94E30B0895809161
:101AF0002B02816080932B0281E0809381010E9400
:101B0000E91C811104C00E94C31C0E94450B0E9465
:101B10003B0B6093590270935A0280935B0290933F
:101B20005C026E7761F40E94450B0E943B0B609350
:101B3000590270935A0280935B0290935C0281E099
:101B4000809380018091590280FF04C086958F7335
:101B50000C942E0D08958091590286958F738F5F96
:101B6000833208F081E00C942E0D80915902869505
:101B70008F73815009F482E20C942E0DCF93DF9382
:101B8000C9E5D2E0888181608883609159027091B3
:101B90005A0280915B0290915C020E943F0B888107
:101BA00086958F73DF91CF910C942E0DE9E5F2E0CD
:101BB00080818E7F80836091590270915A0280915A
:101BC0005B0290915C020E943F0B109280012FEF0C
:101BD00080E792E0215080409040E1F700C0000093
:101BE0000C94670B8091590280FD0C94D60D0C94D7
:101BF000BE0DCF93C82F80917E0190917F010E94EE
:101C00002A1EEC2FF0E0E659FC4FE491F0E08E172D
:101C10009F0708F442C00E941E1E90937F0180938C
:101C20007E0160917D0170E080E090E00E941E2BBB
:101C300020E030E04FE753E40E94572A2BED3FE0CD
:101C400049E450E40E943F2C0E94A22C0E94C42A26
:101C50002BE43AE34EE25FE30E94F22920EF3BEFF0
:101C600048ED52E40E943F2C0E94F02A462F8091BA
:101C70005902881F8827881F90915A02292F220F06
:101C800097FB992790F960915B02822B0E94950B3C
:101C900080917D018F5F80937D01CF910895CF93D7
:101CA000C82F80917B0190917C010E942A1EEC2F0D
:101CB000F0E0E959FC4FE491F0E08E179F07E8F05F
:101CC0000E941E1E90937C0180937B0140915C02D8
:101CD00060915B028091790190917A010E94950B4D
:101CE0008091790190917A01019668E671E00E94F5
:101CF0001F2D90937A0180937901CF910895DF92FF
:101D0000EF92FF920F931F93CF93DF93D82E809182
:101D10007701909178010E942A1EED2DE695F0E062
:101D2000EC59FC4FE491F0E08E179F07F0F10E9410
:101D30001E1E909378018093770101E612E0C0E0C7
:101D4000D0E068E6E62EFF24F3948091750190912F
:101D500076018C0F9D1FB7010E941F2D98014091A5
:101D60005C0260915B020E94C30A66960D5F1F4F82
:101D7000C03681E0D80749F70E94670B20917501B2
:101D800030917601D0FE0BC0C901019668E671E082
:101D90000E941F2D909376018093750106C02150FB
:101DA00031093093760120937501DF91CF911F9116
:101DB0000F91FF90EF90DF900895AF92BF92CF9276
:101DC000DF92EF92FF920F931F93CF93DF93C82F71
:101DD00080FD03C0BB24B39402C0BB24BA9480919D
:101DE0007301909174010E942A1EC695EC2FF0E0B9
:101DF000EF59FC4FE491F0E08E179F0708F465C09F
:101E00000E941E1E9093740180937301F1E6EF2EE1
:101E1000F2E0FF2E03E612E0C0E0D0E0F8013197D7
:101E20001082F7011082F8011082E4E0CE2ED12C4E
:101E3000A12C809172018A0D87FD805F992787FD13
:101E40009095C817D907E9F480915C028C9DA00198
:101E50008D9D500D11245595479555954795809129
:101E60005902881F8827881F90915A02592F550FB1
:101E700097FB992790F9970160915B02852B0E944F
:101E8000C30AAB0CF1E0CF1AD108C114D10489F612
:101E9000219683E0E80EF11C0D5F1F4FC031D10584
:101EA00009F0BCCF0E94670B8091720191E0B912DA
:101EB00006C0811102C08FE006C0815004C090E0CE
:101EC00001968F70992780937201DF91CF911F91B6
:101ED0000F91FF90EF90DF90CF90BF90AF9008955B
:101EE000EF92FF920F931F93CF93DF93C82F8091B0
:101EF0007001909171010E942A1EEC2FF0E0E25ACD
:101F0000FC4FE491F0E08E179F0708F466C00E9432
:101F10001E1E9093710180937001E3E6F2E0DF01F1
:101F200011971C92DF0112971C921082339682E067
:101F3000E339F807A1F703E612E0A1E6EA2EA2E0F2
:101F4000FA2EC0E0D0E080916F01992787FD90952F
:101F5000C817D907ECF080910101992787FD90956A
:101F60008C179D07ACF080915902881F8827881F25
:101F700090915A02592F550F97FB992790F9970185
:101F800040915C0260915B02852B0E94C30A07C0EE
:101F9000F80131971082F7011082F8011082219622
:101FA000F3E0EF0EF11C0D5F1F4FC031D10559F664
:101FB0000E94670B2091000180916F01820F809336
:101FC0006F0190910101920F90930101191614F481
:101FD0008F301CF0219520930001DF91CF911F914C
:101FE0000F91FF90EF900895EF92FF920F931F9340
:101FF000CF93DF9380916D0190916E010E942A1E14
:10200000883E9340C8F10E941E1E90936E018093FB
:102010006D01C0916B01D0916C012196C170DD27DB
:10202000D0936C01C0936B0101E612E0F12CB8E78C
:10203000EB2E8F2D8695FE01E80FF11DCF018170EB
:102040009927980140915C0260915B02FC01EE9E31
:10205000C001EF9E900D11240E94C30AF3940D5FFE
:102060001F4FF0E1FF12E5CFDF91CF911F910F914C
:10207000FF90EF900C94670BDF91CF911F910F9120
:10208000FF90EF90089580918001882391F1209135
:102090005902822F86958F739EE3980F9F73943019
:1020A00018F482500C94F90D9AE3980F9F739330B3
:1020B00018F486500C944F0E97E3980F9F73963048
:1020C00018F489500C947F0E91E3980F9F7396300B
:1020D00018F48F500C94DD0E9BE2980F9F73933091
:1020E00018F485510C94700F2E77203311F40C9452
:1020F000F40F08953EB1242F209523233EB1342BB5
:102100004FB7F894FC01680F791FE617F70789F0BD
:10211000819198E03EB9000000C087FF2EB9880F7A
:10212000000000C000C000C02EB900C09A9591F711
:10213000ECCF4FBF08952DB1242B2DB99B01220F59
:10214000331F260F371FB9010E947A1087EC90E0E9
:102150000197F1F700C00000089544E00C949B1033
:1021600090938701809386010895E0918601F09114
:102170008701309721F00190F081E02D099480E0F3
:102180000895E0918601F0918701309721F0028057
:10219000F381E02D09940895E0918601F091870183
:1021A000309721F00480F581E02D09940895209165
:1021B0008401309185018217930771F09093850116
:1021C00080938401E0918601F0918701309721F09E
:1021D0000680F781E02D09940895209182013091C5
:1021E00083018217930771F090938301809382019A
:1021F000E0918601F0918701309721F00084F1850C
:10220000E02D0994089508950C94031181E0089538
:102210000E94151E0E94B4090E94E91E0E941E22FF
:102220000C94770D5F926F927F928F929F92AF92F4
:10223000BF92CF92DF92EF92FF920F931F93CF93B3
:10224000DF93CDB7DEB72A970FB6F894DEBF0FBE87
:10225000CDBF0E94000A0E940611811111C08FEFAC
:1022600089838A831B820E941E1E8160782F9D8332
:102270008C8349815A816B818D810E94D01157C016
:1022800099E8C92E91E0D92E00E010E0AA24A39489
:10229000B12C502E802F0E94B90A3C01F601E1902A
:1022A000F1906F01E826F926E114F10431F40F5F93
:1022B0001F4F0530110569F7D2CF80912B0281FDA8
:1022C0000E94C20A20E030E04501022E02C0880CC4
:1022D000991C0A94E2F7C4018E219F21892B09F1F0
:1022E0002E835F826820792081E0672809F480E0EE
:1022F00088870E941E1E8160782F9A8789874E8169
:102300005F8168858A850E94D011F801EE0FFF1F5A
:10231000E757FE4F8081918188259925918380839D
:1023200006C02F5F3F4F2F30310571F6C0CF0E949E
:102330008921109188010E94B5101817D9F00E94C8
:10234000B510809388012A960FB6F894DEBF0FBEB1
:10235000CDBFDF91CF911F910F91FF90EF90DF9054
:10236000CF90BF90AF909F908F907F906F905F9035
:102370000C94CB062A960FB6F894DEBF0FBECDBFE5
:10238000DF91CF911F910F91FF90EF90DF90CF9051
:10239000BF90AF909F908F907F906F905F900895C7
:1023A000CF93DF93CDB7DEB72B970FB6F894DEBF90
:1023B0000FBECDBF4F83588769877A878B87DE0131
:1023C000119686E0FD0111928A95E9F785E0FE01FC
:1023D000379601900D928A95E1F749815A816B8178
:1023E0007C818D819E810E943A192B960FB6F894BC
:1023F000DEBF0FBECDBFDF91CF910895FC0180817C
:1024000091810E94F81B0895882309F4F4C0823852
:10241000C1F40E94B51081FDEEC069E38091020114
:10242000909103010E947F1D0E94571C2FEF81EEA7
:1024300094E0215080409040E1F700C0000069E343
:1024400019C08338F9F40E94B51080FDD4C063E54B
:1024500080910201909103010E947F1D0E94571CF0
:102460002FEF81EE94E0215080409040E1F700C0D2
:10247000000063E580910201909103010E948A1D92
:102480000C94571C8438C1F40E94B51082FDB3C06F
:1024900067E480910201909103010E947F1D0E94D8
:1024A000571C2FEF81EE94E0215080409040E1F7DF
:1024B00000C0000067E4DECF9CEF980F913A40F433
:1024C000682F80910201909103010E947F1DD8CF57
:1024D00090E2980F983050F4877091E001C0990F06
:1024E0008A95EAF7892F0E948D1CCACF9BE5980F29
:1024F000933070F4853A29F0863A31F482E890E01E
:1025000005C081E890E002C083E890E00C94D71009
:1025100098E5980F953108F06EC0883A61F1893AD4
:1025200069F18A3A71F18B3A79F18C3A81F18B3BFE
:1025300089F18C3B91F18D3A99F1803BA1F18E3A72
:10254000A9F18F3AB1F1813BB9F1823BC1F1833BF3
:10255000C9F1843BD1F1853BD9F1863BE1F1873B61
:10256000E9F1883BF1F1893BF9F18A3B09F03FC081
:102570008AE292E03EC082EE90E03BC089EE90E0BD
:1025800038C08AEE90E035C085EB90E032C086EB33
:1025900090E02FC083EB90E02CC084EB90E029C04A
:1025A00087EB90E026C08CEC90E023C08DEC90E0AF
:1025B00020C083E891E01DC08AE891E01AC082E95A
:1025C00091E017C084E991E014C081E292E011C06B
:1025D00083E292E00EC084E292E00BC085E292E0DA
:1025E00008C086E292E005C087E292E002C080E087
:1025F00090E00C94ED100895882309F45DC08238B2
:1026000079F40E94B51081FF57C069E380910201FF
:10261000909103010E947F1D0E94571C69E310C026
:102620008338B1F40E94B51080FF46C063E5809105
:102630000201909103010E947F1D0E94571C63E5D7
:1026400080910201909103010E948A1D0C94571CF5
:10265000843879F40E94B51082FF2EC067E480911F
:102660000201909103010E947F1D0E94571C67E4A4
:10267000E7CF9CEF980F913A10F4682FE1CF90E2EA
:10268000980F983050F4877091E001C0990F8A95A7
:10269000EAF7892F0E94931CD9CF9BE5980F9330BE
:1026A00020F480E090E00C94D710885A853120F413
:1026B00080E090E00C94ED100895882321F00E94B2
:1026C0008D1C0C94571C0895882321F00E94931CA4
:1026D0000C94571C08958F929F92BF92CF92DF92D5
:1026E000EF92FF920F931F93CF93DF9300D0CDB75C
:1026F000DEB74C01472FFC01C580C2949FE0C92280
:10270000D280DD2031F079836A830E94AA1C6A811D
:10271000498149836A830E94501C49816A818823C8
:1027200089F0DD2079F080E2860F883058F082E071
:102730000E94391C0E94501CBB24B394B8264981C6
:102740006A8101C0B12CE42EE2948FE0E822F12CE2
:10275000F701E859FF4F0C94692D842F807F142FC7
:102760001F70882311F01295107FDD20C1F0112316
:1027700009F4DDC180E2860F883010F0611105C0D8
:10278000812F6A830E948D1C04C0812F6A830E945E
:102790009D1C6A816A830E94571C6A81C8C1862F6A
:1027A0006A830E94FC126A81112309F407C280E245
:1027B000860F883010F0611104C0812F0E94931C95
:1027C00003C0812F0E94A31C0E94571CF7C1242F15
:1027D000207F842F8F70203211F08295807F6623B6
:1027E00019F06130B9F022C0DD2049F0CC2009F4A5
:1027F00052C1F1E0CF124FC10E94BD1CDFC1CC20FD
:1028000021F021E0C21609F4D9C189830E94C01CBD
:10281000898147C1DD2029F095E09C1508F4CEC1DF
:102820003AC1E4E0EC1508F4C9C13BC1DD2051F028
:10283000CC2009F430C1F401958190FF78C19F70DC
:10284000958329C1CC2009F42CC182C1242F26955F
:102850002695237030E02115310521F02130310516
:1028600061F0ACC1DD2021F0862F942F937002C05F
:1028700080E090E00E94D710B1C1DD2021F0862FCA
:10288000942F937002C080E090E00E94ED10A6C1EA
:10289000DD20F9F0653F51F0663F71F0643FA9F427
:1028A000809191029091920281600BC0809191027F
:1028B00090919202826005C0809191029091920263
:1028C00084609093920280939102862F0E949120BF
:1028D00022C0653F51F0663F91F0643FC9F480919A
:1028E0009102909192028E7F05C080919102909109
:1028F00092028D7F909392028093910209C0209161
:102900009102309192022B7F309392022093910298
:10291000862F0E94F9200E947E2160C1842F83703F
:1029200009F04EC0D11056C1262F2295269527704A
:10293000220F220F862F8F70C82ED12CE12CF12C64
:10294000022E04C0CC0CDD1CEE1CFF1C0A94D2F736
:1029500064FF10C06FE070E080E090E004C0660F9C
:10296000771F881F991F2A95D2F7609570958095DB
:10297000909503C060E070E0CB01242F269526954A
:10298000237030E02230310569F02330310589F0C1
:102990006C297D298E299F292130310571F00E94F3
:1029A0008B1A18C16C297D298E299F290E949D1A96
:1029B00011C10E948B1AC701B6010E94791A0AC17F
:1029C000DD2019F0842F817001C08695882309F4D9
:1029D00001C1262F229526952770220F220F862FC0
:1029E0008F70C82ED12CE12CF12C022E04C0CC0CFF
:1029F000DD1CEE1CFF1C0A94D2F764FF10C06FE0D0
:102A000070E080E090E004C0660F771F881F991F78
:102A10002A95D2F7609570958095909503C060E0F7
:102A200070E0CB01242F26952695237030E02230CC
:102A3000310569F02330310589F06C297D298E2913
:102A40009F292130310571F00E94391BC3C06C29C8
:102A50007D298E299F290E944B1BBCC00E94391BD7
:102A6000C701B6010E94271BB5C0062F10E0F80170
:102A7000E05EF109E531F10508F055C0E858FF4F77
:102A80000C94692D162F1F70842F8F71DD2031F06B
:102A90000E94D21A812F0E945D1390C00E94ED1AED
:102AA000812F0E9464138AC0DD2049F0F4E0FC15F8
:102AB00008F484C0842F8F710E940C1B7FC025E016
:102AC0002C1508F47BC0F6CFDD2039F0842F8F71F0
:102AD0000E94D21A73C0DD20C9F3842F8F710E9427
:102AE000ED1A6CC0DD2029F0842F8F710E94C31A6B
:102AF00065C00E94BE1A62C0DD2051F0142F1F7104
:102B0000812F0E94D21A63E0812F0E94301C56C090
:102B100081E00E94391C81E08C1508F04FC082E0F2
:102B20000E94391C4BC0DD2031F0CC2079F2862F79
:102B30000E94041243C0CC2081F2693349F49FEF14
:102B4000E7EEF3E09150E040F040E1F700C0000014
:102B5000862F0E94FC1232C04F70C4010E94CD0625
:102B60000E94E7193BC0D11039C0942F9F70892F64
:102B700090E08230910599F03CF4009769F001975C
:102B8000E9F40E9457222AC08430910571F054F074
:102B90000597A1F480E00AC00E943B221FC00E945A
:102BA00073221CC00E948D2219C085E00E94B222AF
:102BB00015C04F70C4010E945A0310C028E0E216ED
:102BC000F10441F05CF09AE0E91AF108E2E0EE1657
:102BD000F10420F40E94B5100E94CB06BB20F1F056
:102BE0000E942C1C80FD1AC0F40112820E94261C37
:102BF0000E94D21AC4010E941C160E94261C0F902B
:102C00000F90DF91CF911F910F91FF90EF90DF9088
:102C1000CF90BF909F908F900C94ED1A0F900F90D3
:102C2000DF91CF911F910F91FF90EF90DF90CF90A8
:102C3000BF909F908F9008950F931F93CF93DF9332
:102C4000EC01288139818B819C81892B31F03F3FB8
:102C500011F080E003C02F3FE1F781E0811113C044
:102C6000CE010E949503882371F0688179818A8161
:102C70000E94031C8C010E945D1B0E94761AB80101
:102C8000CE010E946B13DF91CF911F910F91089598
:102C90000E94AA1C0E94BA1C80910201909103011B
:102CA0000E94951D0E94571C0E9412220E947E21A4
:102CB00080E090E00E94D71080E090E00C94ED104E
:102CC0000E949A1C0C9448160E94F81BE92FE2956A
:102CD000EF70F0E03297EE30F105B8F4E357FF4FB4
:102CE0000C94692D803F59F018F4803E70F407C0B1
:102CF000843F59F404C0803E10F0813F31F481E0FC
:102D0000089593FB882780F9089580E00895CF9374
:102D1000DF9300D000D01F92CDB7DEB70F900F9099
:102D20000F900F900F90DF91CF910895CF93DF9385
:102D300000D000D000D0CDB7DEB726960FB6F894FD
:102D4000DEBF0FBECDBFDF91CF9108951F93CF930C
:102D5000DF93C091940116E080919501C81799F016
:102D6000D0E01C9FF0011D9FF00D1124EA56FE4F8C
:102D70004081518162817381848195810E94961680
:102D80002196C770E9CFDF91CF911F9108954091AF
:102D9000C6015091C7016091C8017091C90180912D
:102DA000CA019091CB010C949616CF938091CB01E0
:102DB00082958F7009F05FC08091C801882309F463
:102DC0005AC020919401A09195016091C601709123
:102DD000C7018091C9019091CA0131E06F3F09F0AC
:102DE00030E0B32FC6E02A1709F445C0009721F060
:102DF0007F3F21F44B2F03C041E001C040E030E0B1
:102E000040FD35C0C29FF001C39FF00D1124EA566A
:102E1000FE4F418174132BC04081641328C042814E
:102E2000411125C0438154814817590710F441507E
:102E30005109481B590B483C5105C8F48091CB01FE
:102E40008F7080618093CB0186E0829FF001839F29
:102E5000F00D1124E556FE4F80818F7080618083D4
:102E600086EC91E00E941C16CF910C94A6162F5F61
:102E70003F4F2770B8CFCF910895CF92DF92EF9256
:102E8000FF920F931F93CF93DF93CDB7DEB7629777
:102E90000FB6F894DEBF0FBECDBF8C0185E0F80100
:102EA000DE011D9601900D928A95E1F7D8014C91B3
:102EB00011965C91119712966C9112971396ED9062
:102EC000FC9014977091C601E091C7012091C9014F
:102ED0003091CA012115310531F0EF3F31F481E025
:102EE0007F3F19F403C081E001C080E0B82FB170CA
:102EF000CB2E80FD6BC1D090C801DD2009F4F5C058
:102F0000F091CB01E216F30638F0C701821B930B58
:102F1000883C910548F09DC0209530952E0D3F1DB1
:102F2000283C310508F095C08F2F807F09F052C0F2
:102F3000E51314C0741312C0D62E61110FC0FF70B8
:102F4000F061F093CB010E94C71686EC91E00E94DD
:102F50001C168091CB01F80185837CC1EF2831F0EC
:102F60005F3F31F481E04F3F19F403C081E001C0BD
:102F700080E080FD03C081E0862701C080E0F82F5B
:102F8000F170FF2E80FF1CC080919401209195016B
:102F900036E0821709F438C190E0389FF001399F7C
:102FA000F00D1124EA56FE4F7181571306C070814F
:102FB000471303C07281671303C001968770E9CF7E
:102FC000D62E662309F446C18091CB01816080939F
:102FD000CB0155C0E51308C0741306C0611104C0CD
:102FE000D8011596FC93AEC04D875E878D859E8572
:102FF0006A8B0E9464166A89882329F1D62E66237B
:1030000011F12091CB01822F82958F7090E0029771
:103010000CF462C08091C6019091C70198878F839C
:103020001986FB86EA862C87CE01079653C0E517E2
:1030300041F14D875E878D859E856A8B0E9464165F
:103040006A89811130C0C8010E941C16DD24D39406
:1030500001C18F2F807F59F77E2DF98AE88A8989EF
:103060000E94871686EC91E00E941C16E6ECF1E0C7
:1030700086E0DF011D928A95E9F70E94C716D12CE0
:10308000E9C07413D6CF6111D4CFD8011596FC9343
:10309000C8010E941C16E6ECF1E086E0DF011D92FB
:1030A0008A95E9F7D7C0D62E662369F22091CB0125
:1030B000822F82958F7090E0029774F08091C60104
:1030C0009091C7019A8389831B82FD82EC822E83B3
:1030D000CE0101960E941C1686E0F801A6ECB1E034
:1030E00001900D928A95E1F78AC0E216F30628F066
:1030F000C701821B930B9C0104C0209530952E0DB7
:103100003F1D283C310508F053C0D62E662309F434
:103110009ACFE5132CC074132AC08091CB0180FD97
:103120001DC0982F92959F70C9F0D80115968C9369
:1031300015979F3039F09F5F9295907F8F70892B04
:1031400015968C93C8010E941C1686E0F801A6EC27
:10315000B1E001900D928A95E1F753C086E0F80145
:10316000A6ECB1E001900D928A95E1F773C04D870E
:103170005E878D859E850E946416882381F096E087
:10318000F801A6ECB1E001900D929A95E1F78A8BD7
:103190000E94D5160E94C7168A89D82E5BC08091DE
:1031A000CB0181608093CB01C8010E941C1652C0E4
:1031B0007E2DF98AE88A89890E948716E6ECF1E07B
:1031C00086E0DF011D928A95E9F71BC0662309F4AA
:1031D0003ACF4D875E878D859E850E946416D82ED6
:1031E000882309F430CF86E0F801A6ECB1E0019025
:1031F0000D928A95E1F786EC91E00E94FE110E9403
:10320000D5160E94C71626C04D875E878D859E8580
:103210000E94F81B292F22952F7030E022303105B3
:103220002CF49F7041F0811106C00CC02430310590
:103230002CF49F7049F4805E883020F0C8010E9411
:103240001C16CF2CDC2C06C0D80115969C91907FC3
:1032500091F7F8CF8D2D62960FB6F894DEBF0FBEB2
:10326000CDBFDF91CF911F910F91FF90EF90DF9035
:10327000CF9008951F93CF93DF93CDB7DEB72C97F0
:103280000FB6F894DEBF0FBECDBF4F835887698756
:103290007A878B879C87CE0107960E943D178823EB
:1032A000C1F02F8138858A859B85892B31F03F3F7E
:1032B00011F080E003C02F3FE1F781E0811147C0AA
:1032C0004F81588569857A858B859C850E949616E5
:1032D0003EC086E0FE013796DE01119601900D9208
:1032E0008A95E1F7FF81E8854A855B85411551059F
:1032F00031F0EF3F31F481E0FF3F19F403C081E08A
:1033000001C080E080FD23C02091950130E0C9011B
:103310000196877099276091940170E0861797074E
:10332000F1F1F983EA835D834C8396E0929FD001AB
:10333000939FB00D1124AA56BE4FFE013196019005
:103340000D929A95E1F7809395010E94A61616E0DA
:103350008091940190919501891779F1189FC0018E
:1033600011248A569E4F0E943D17882331F1E09127
:1033700094011E9FF0011124EA56FE4F40815181B5
:1033800062817381848195810E9496168091940157
:1033900090E001968770992780939401D9CF0E947D
:1033A00060161092950110929401E6ECF1E086E02F
:1033B000DF011D928A95E9F7CACF2C960FB6F894D3
:1033C000DEBF0FBECDBFDF91CF911F910895EF9269
:1033D000FF920F931F93CF93DF939C01009709F403
:1033E00071C0F12CEE24E394E9012196F901849156
:1033F000843740F4843008F056C0813081F0823048
:1034000021F160C0853709F449C0C0F19CE7980FED
:10341000903708F057C08F770E94FC1246C0890190
:103420000E5F1F4FFE01849190E2980F983050F488
:103430008770FE2D01C0FF0F8A95EAF78F2F0E943B
:10344000AD1C15C00E94041214C089010E5F1F4FED
:10345000FE01849190E2980F983068F48770FE2DF9
:1034600001C0FF0F8A95EAF78F2F0E94B31C0E94BC
:10347000571CE8011AC00E94FC12FBCF2E5F3F4F81
:10348000FE01C491CC2341F08FE99FE00197F1F751
:1034900000C00000C150F6CFE90107C0FE01F49062
:1034A000E901229602C00E9404128F2D882341F068
:1034B000EFE9FFE03197F1F700C000008150F6CF4F
:1034C0009E0192CFDF91CF911F910F91FF90EF90CE
:1034D000089508950E94691A60930202709303028E
:1034E00080930402909305020C94481608950C945E
:1034F0006A1A0F931F930091020210910302209108
:10350000040230910502602B712B822B932B1F91AB
:103510000F910C946A1A0F931F930091020210915D
:10352000030220910402309105026023712382235B
:1035300093231F910F910C946A1A0F931F9300917C
:1035400002021091030220910402309105026027CB
:103550007127822793271F910F910C946A1A08955F
:103560000C94AF1A0E94B01A6093FE017093FF0191
:1035700080930002909301020C94481660E070E082
:10358000CB010C94B21A41E050E060E070E004C05E
:10359000440F551F661F771F8A95D2F7CB01BA01DA
:1035A0000C94B21A41E050E060E070E004C0440FB7
:1035B000551F661F771F8A95D2F78091FE01909163
:1035C000FF01A0910002B0910102482B592B6A2BF8
:1035D0007B2BCB01BA010C94B21A41E050E060E0C1
:1035E00070E004C0440F551F661F771F8A95D2F7FD
:1035F00040955095609570958091FE019091FF01E6
:10360000A0910002B0910102482359236A237B2331
:10361000CB01BA010C94B21A41E050E060E070E0D6
:1036200004C0440F551F661F771F8A95D2F78091FB
:10363000FE019091FF01A0910002B0910102482784
:1036400059276A277B27CB01BA010C94B21A0F9332
:103650001F930091FE011091FF0120910002309113
:103660000102602B712B822B932B1F910F910C94D5
:10367000B21A0F931F930091FE011091FF01209148
:1036800000023091010260237123822393231F9152
:103690000F910C94B21A0F931F930091FE01109199
:1036A000FF012091000230910102602771278227DB
:1036B00093271F910F910C94B21A08952FE0929FB7
:1036C000800D1124482F4695469546958770B1E0A8
:1036D00001C0BB0F8A95EAF785E0489FA00111243D
:1036E00044535E4F80E090E070E0FA01E80FF91F6C
:1036F000A0819B01082E02C0369527950A94E2F717
:103700002170332721952A272B232A2720830196EE
:103710008530910551F708952FE0929F800D112477
:10372000682F669566956695982F977085E0689FD7
:10373000B001112464537E4F40E050E080E0FB0173
:10374000E40FF51F208130E0092E02C03695279541
:103750000A94E2F721703327042E01C0220F0A9445
:10376000EAF7822B4F5F5F4F4530510541F70895CF
:10377000CF92DF92EF92FF920F931F93CF93DF933D
:10378000EC01C0900202D0900302E0900402F0909D
:1037900005028091FE019091FF01A0910002B0917D
:1037A0000102C82AD92AEA2AFB2A0FE110E0B70150
:1037B000A601002E04C076956795579547950A9403
:1037C000D2F740FD05C00150110988F780E007C01D
:1037D000BE01802F0E94EA060197A9F3802FDF9196
:1037E000CF911F910F91FF90EF90DF90CF900895B0
:1037F000CF93DF93EC010E94B81BBE010E94EA0642
:10380000DF91CF9108951F93CF93DF93EB019091B8
:103810009301992321F0CB010E94F81B13C0882348
:1038200049F0CB010E94B81B182F682FCE010E94CF
:103830005E1B04C0CB010E948C1B182FBE01812F80
:103840000E94EA06DF91CF911F91089580910602B0
:1038500085958595859508958091060287700895D0
:1038600098E0899F90011124622B609306020C94CA
:10387000D21A409106028095842380930602982FE5
:10388000977069F450E0282F332727FD30954217B1
:10389000530729F08595859585950C94ED1A089523
:1038A00090910602977081E009F480E00895E0911C
:1038B0000201F091030180912A028083E0910201CC
:1038C000F0910301808190912902892B8083E091FE
:1038D0000201F0910301808190912802892B80835D
:1038E00090910702992381F0E0910201F091030188
:1038F0008081892B808380910201909103010E9435
:10390000181D81111092070280910201909103010C
:103910000C94C11080912A02089590912A02982B4C
:1039200090932A020895809590912A02982390936B
:103930002A02089510922A02089590912902982B44
:10394000909329020895809590912902982390934D
:103950002902089510922902089590912802982B27
:10396000909328020895809590912802982390932F
:10397000280208951092280208958093070208955E
:103980001092070208956DEE7EEF80E090E00E94B5
:10399000AC2D60E082E090E00E948E2D60E083E03C
:1039A00090E00E948E2D60E084E090E00E948E2DD9
:1039B00060E085E090E00E948E2D60E086E090E07F
:1039C0000E948E2D40E050E0BA0188E090E00C9417
:1039D000A02D80E090E00E94882D21E08D3E9E4F3A
:1039E00009F020E0822F089582E090E00C947A2D77
:1039F000682F82E090E00C948E2D83E090E00C9490
:103A00007A2D682F83E090E00C948E2D84E090E076
:103A10000C947A2D682F84E090E00C948E2D86E033
:103A200090E00C947A2D682F86E090E00C948E2D17
:103A300020E030E040E0FC01E20FF31F5181511122
:103A40004F5F2F5F3F4F2F313105A9F7842F089526
:103A500020E030E04FEFFC01E20FF31F52815617D8
:103A600099F04F3F19F4511101C0422F2F5F3F4F82
:103A70002E31310581F74F3F39F0FC01E40FF11D84
:103A800047FDFA9562830895089520E030E0FC0137
:103A9000E20FF31F4281461301C012822F5F3F4F96
:103AA0002E313105A1F70895262F269526952695C6
:103AB0002F3170F4FC01E20FF11D677021E030E05E
:103AC000062E01C0220F0A94EAF78181822B81839E
:103AD0000895262F2695269526952F3178F4FC01FA
:103AE000E20FF11D677021E030E0062E01C0220FC9
:103AF0000A94EAF720958181282321830895209153
:103B00001401222329F02091970227FD0C94541DC3
:103B10000C94281D20911401222329F02091970252
:103B200027FD0C94691D0C94451D20E030E0FC013C
:103B3000E20FF31F11822F5F3F4F2F313105B9F78D
:103B4000089580919E02843039F110922C0220E475
:103B500088E190E00FB6F894A895809360000FBEBE
:103B60002093600080E00E945C0680E00E94CB060B
:103B700083B7817F846083BF83B7816083BF78947C
:103B8000889583B78E7F83BF88E10FB6F8948093C2
:103B90006000109260000FBE089508950895CF93BD
:103BA0000E94CD1D0E94000A0E94CE1DC0E08C2FF5
:103BB0000E94B90A892B29F4CF5FC530C1F780E094
:103BC00001C081E0CF9108950E9460160E941E22DC
:103BD0000E94B5100C94CB061F920F920FB60F9255
:103BE00011248F939F93AF93BF9380912C028111E7
:103BF00013C08091930290919402A0919502B0918C
:103C000096024196A11DB11D809393029093940258
:103C1000A0939502B0939602BF91AF919F918F911F
:103C20000F900FBE0F901F90189582E084BD93E017
:103C300095BD9AEF97BD80936E0008952FB7F894C5
:103C40008091930290919402A0919502B091960276
:103C50002FBF0895CF92DF92EF92FF920F931F93A1
:103C60002FB7F8944091930250919402609195027D
:103C7000709196022FBF6A017B01EE24FF248C0114
:103C800020E030E0C016D106E206F30610F4415001
:103C90005109481B590BCA011F910F91FF90EF90DA
:103CA000DF90CF90089578941F920F920FB60F92E5
:103CB00011248F939F93AF93BF9380919302909120
:103CC0009402A0919502B09196020196A11DB11D9A
:103CD0008093930290939402A0939502B0939602DE
:103CE000BF91AF919F918F910F900FBE0F901F903A
:103CF000189581E08093E00080E28093D8001092D4
:103D0000C9008FE19EE40197F1F700C0000087E051
:103D100090EBDC018093A7029093A802A093A902E4
:103D2000B093AA022CE088E190E00FB6F894A89531
:103D3000809360000FBE20936000FFCFBF92CF92B0
:103D4000DF92EF92FF920F931F93CF93DF93B12CEB
:103D500001E010E0E82EF12C8B2D0E94B90A6C01D5
:103D6000C0E0D0E098010C2E02C0220F331F0A944D
:103D7000E2F72C213D21232B29F42196CF30D105C8
:103D800089F70AC06C2F7B2D80E00E94D006E816D0
:103D9000F90699F781E005C0B39485E0B812DCCF4D
:103DA00080E0DF91CF911F910F91FF90EF90DF9016
:103DB000CF90BF900895CF93C82F8CE20E949E1E93
:103DC000882321F08C2FCF910C949E1E80E0CF9100
:103DD0000895CF930E94E91C811102C00E94C31C68
:103DE000C5E6C15049F00E94000A8FE39CE90197A3
:103DF000F1F700C00000F5CF89E20E94DB1E8111BF
:103E00000DC18AE20E94DB1E81110E94C31C85E065
:103E10000E94DB1E81110E94791E0E94F41C809377
:103E20002B0287E00E94DB1E882399F18BE10E9420
:103E3000DB1E882351F090912B0291FB882780F99B
:103E400021E0822780FB91F922C08EE00E94DB1ED8
:103E5000882351F090912B0292FB882780F921E072
:103E6000822780FB92F913C080E10E94DB1E9091B3
:103E70002B02882341F093FB882780F921E08227D9
:103E800080FB93F904C0892F809580FB90F9909373
:103E90002B0280912B020E94F81C0E94061D90E0CC
:103EA000909398028093970280EE0E94DB1E8823F5
:103EB00041F080919702982F909590FB80F9809324
:103EC000970289E30E94DB1E882359F090919702A4
:103ED00091FB882780F921E0822780FB91F990935C
:103EE000970282EE0E94DB1E882359F09091970280
:103EF00092FB882780F921E0822780FB92F990933A
:103F0000970286EE0E94DB1E882359F0909197025B
:103F100093FB882780F921E0822780FB93F9909317
:103F2000970283EE0E94DB1E882359F0909197023E
:103F300094FB882780F921E0822780FB94F99093F5
:103F4000970285E30E94DB1E882359F09091970227
:103F500095FB882780F921E0822780FB95F99093D3
:103F6000970281E30E94DB1E882359F0909197020B
:103F700096FB882780F921E0822780FB96F99093B1
:103F8000970281E10E94DB1E882359F090919702ED
:103F900097FB882780F921E0822780FB97F990938F
:103FA0009702809197020E940A1D87E20E94DB1E01
:103FB000C82F8EE10E94DB1E8111C2608FE10E943A
:103FC000DB1E8111C46080E20E94DB1E8111C8608B
:103FD00081E20E94DB1E8111C06182E20E94DB1E31
:103FE0008111C06283E20E94DB1E8111C06484E201
:103FF0000E94DB1E882311F0C06802C0CC2329F088
:104000008C2F0E94011D6C2F03C00E94FD1C682F85
:1040100070E080E090E0CF910C94771ACF910895F2
:1040200080912F0280FF0BC06091070185E0689F9F
:10403000B001112475956795759567952AC081FF24
:1040400009C06091070185E0689FB0011124759552
:1040500067951FC082FF07C06091070185E0689FD8
:10406000B001112416C0409130024423C9F0609180
:104070000601461788F72091070185E0289F9001E7
:104080001124429FC001439F900D112470E00E94B3
:10409000332D6038710540F46115710539F002C0A7
:1040A00065E070E0862F08958FE7089581E0089518
:1040B00080912F0280FF08C06091050170E0759526
:1040C00067957595679521C081FF06C060910501D0
:1040D00070E07595679519C082FF04C06091050175
:1040E00070E010C0809130028823C1F0609104011B
:1040F0008617A0F790910501989FC001112470E0E8
:104100000E94332D6038710528F46115710521F086
:10411000862F08958FE7089581E0089561E070E0AB
:10412000F4CF803F21F40E941020819504C0813F8C
:1041300029F40E941020809333020895823F21F4D5
:104140000E941020819504C0833F29F40E94102012
:10415000809332020895893F19F40E94582005C0C7
:104160008A3F31F40E94582081958093340208954B
:104170008B3F21F40E945820819504C08C3F29F484
:104180000E945820809335020895843F21F4809145
:104190003102816017C0853F21F480913102826035
:1041A00011C0863F21F48091310284600BC0873FAB
:1041B00021F480913102886005C0883F31F48091FC
:1041C000310280618093310208958D3F21F4809106
:1041D0002F0281600BC08E3F21F480912F028260FC
:1041E00005C08F3F29F480912F02846080932F02B5
:1041F0000895803F39F48091330287FF6CC010929C
:10420000330269C0813F29F4809133021816BCF350
:1042100062C090913202823F29F497FF5CC01092F5
:10422000320259C0833F19F41916CCF354C0893FA8
:1042300041F48091340218160CF04DC010923402F3
:104240004AC08A3F29F48091340287FF44C0F6CFE8
:104250008B3F39F48091350287FF3DC010923502C3
:104260003AC08C3F29F4809135021816BCF333C054
:10427000843F21F4809131028E7F17C0853F21F465
:10428000809131028D7F11C0863F21F480913102EF
:104290008B7F0BC0873F21F480913102877F05C05F
:1042A000883F31F4809131028F7E8093310213C0B8
:1042B0008D3F21F480912F028E7F0BC08E3F21F421
:1042C00080912F028D7F05C08F3F29F480912F02AE
:1042D0008B7F80932F028091320281110EC08091DA
:1042E000330281110AC080913402811106C080918D
:1042F0003502811102C010923002089581E392E0EC
:104300000E94CC100E941E1E90932E0280932D02BC
:1043100008951F93CF93DF9380912D0290912E02E9
:104320000E942A1E40913002442321F0209108016E
:1043300030E006C0209109015AE0259F9001112428
:104340008217930708F46AC08091320210913302F9
:10435000D0913402C0913502811107C0111105C0FE
:10436000D11103C0CC2309F459C04F3F19F04F5F5E
:1043700040933002181624F40E94102080933202D9
:104380008091320287FF05C00E94102081958093A2
:104390003202111624F40E9410208093330280917F
:1043A000330287FF05C00E9410208195809333025D
:1043B00020913202222379F040913302442359F0B4
:1043C00055EB250390011124309332024503C001BF
:1043D0001124909333021D1624F40E9458208093D8
:1043E00034028091340287FF05C00E9458208195D5
:1043F000809334021C1624F40E94582080933502C6
:104400008091350287FF05C00E94582081958093D6
:104410003502DF91CF911F910C947E21DF91CF91D6
:104420001F910895E1E3F2E085E0DF011D928A9596
:10443000E9F71092300210922F0208950E94E91CB1
:10444000811102C00E94C31C0E940F1D809399021B
:10445000282F269530E02630310524F081708A60BF
:10446000809399028091990280FF02C0869501C0D5
:1044700080E00C945C0620919902322F3695832FB0
:1044800090E0059744F491E0930F990F822F81708B
:10449000892B80939902809199028160809399027F
:1044A0000E94131D8091990286950C945C06809160
:1044B0009902982F969591F09158990F8170892BB8
:1044C000809399028E7F91E009F490E080919902A7
:1044D00090FB80F9809399020E94131D80919902AC
:1044E00086950C945C0680919902982F909590FB8C
:1044F00080F980939902813019F483E080939902C6
:10450000809199020E94131D8091990280FF02C040
:10451000869501C080E00C945C0630919902232FAF
:1045200026952F5F2F77822F90E0317006972CF41D
:10453000220F232B2093990202C03093990280917D
:1045400099028E7F91E009F490E08091990290FBAE
:1045500080F9809399020E94131D8091990286959B
:104560000C945C06863008F085E0880F90919902E3
:104570009170982B909399029E7F21E009F420E09E
:104580008091990220FB80F9809399020E94131D6B
:104590008091990286950C945C068091560208954C
:1045A0000F931F93CF93DF9300D01F92CDB7DEB749
:1045B0008C010E944625823011F0843019F583E089
:1045C00089831B830A838093E9008FEF9091E80031
:1045D000815095FD06C095ED9A95F1F70000811187
:1045E000F5CF8091E80085FF0DC040E050E063E02A
:1045F00070E0CE0101960E9463258091E8008E77DD
:104600008093E8000F900F900F90DF91CF911F9152
:104610000F910895CF93DF9300D01F92CDB7DEB7EF
:1046200020919E02243031F522E02983805891099F
:104630009B838A8383E08093E9008FEF9091E80069
:10464000815095FD06C095ED9A95F1F70000811116
:10465000F5CF8091E80085FF0DC040E050E063E0B9
:1046600070E0CE0101960E9463258091E8008E776C
:104670008093E8000F900F900F90DF91CF910895F5
:10468000CF93DF93EC010E944625823011F08430F5
:10469000F9F482E08093E9008FEF9091E800815077
:1046A00095FD06C095ED9A95F1F700008111F5CFC3
:1046B0008091E80085FF0CC040E050E065E070E0CC
:1046C000CE010E9463258091E8008E778093E800F8
:1046D000DF91CF910895CF93DF93EC010E9446259F
:1046E000823019F0843009F047C08091140188238A
:1046F000E1F08091970287FF18C084E08093E90081
:104700008FEF9091E800815095FD06C095E19A9554
:10471000F1F700008111F5CF8091E80085FF2CC0F2
:1047200040E050E060E270E017C081E08093E90073
:104730008FEF9091E800815095FD06C095ED9A9518
:10474000F1F700008111F5CF8091E80085FF14C0DA
:1047500040E050E068E070E0CE010E946325809167
:10476000E8008E778093E80080E2FE01A6E3B2E0E5
:1047700001900D928A95E1F7DF91CF910895809194
:104780009D02811109C00E94F5260E945227809146
:10479000E20084608093E200089510929D020895E3
:1047A000089508950C94E41D42E061EC81E00E94BC
:1047B0006F2642E061EC82E00E946F2642E061ECED
:1047C00083E00E946F2642E261EC84E00C946F2645
:1047D0008091A002833009F455C030F4813071F02B
:1047E000823009F48EC008958A3009F47AC08B3083
:1047F00009F460C0893009F09CC020C080919F02FC
:10480000813A09F096C08091E800877F8093E800A4
:104810008091A3029091A402892B21F060E080E0B6
:1048200090E003C060E286E392E070E00E94AC2575
:104830008091E8008B778093E800089580919F0233
:10484000813209F076C08091A3029091A402009772
:1048500019F0039709F06DC08091E800877F80937D
:10486000E8008091E80082FD05C080919E028111E0
:10487000F8CF5FC08091F100809356028091E800EC
:104880008B7753C080919F02813A09F052C080918A
:10489000A3029091A402892B09F04BC08091E800FB
:1048A000877F8093E8008091E80080FFFCCF8091B3
:1048B000140136C080919F028132D9F58091A30204
:1048C0009091A402892BA9F58091E800877F8093BD
:1048D000E8000E94A4268091A102809314010C9408
:1048E000601680919F02813221F58091E800877FD8
:1048F0008093E8000E94A4268091A2028093570230
:10490000089580919F02813AA1F48091E800877F09
:104910008093E8008091E80080FFFCCF80915702EF
:104920008093F1008091E8008E778093E8000C94EA
:10493000A426089584B7877F84BF88E10FB6F894D2
:1049400080936000109260000FBE80E88093610049
:10495000109261000E9404110E94F5260E945227C5
:104960008091E20084608093E20078940E94D529CF
:104970000E9408118AE091E00E94B01080919E028E
:10498000853069F40E94A11D80919C028823B1F3B7
:104990000E94CF1D882391F30E944D25EFCF0E94E6
:1049A00012110E944310EACF0C94D624292F3327EA
:1049B00023303105A9F06CF42130310509F448C0E9
:1049C0002230310509F049C08DE690E026E934E057
:1049D00048C021323105F9F02232310549F13DC09C
:1049E00099278130910571F02CF4892BB1F5E2E91A
:1049F000F4E00DC08230910541F0039771F5EEE6C9
:104A0000F4E005C0E0E8F4E002C0E4E7F4E08491FB
:104A100090E09F0126C064307105F8F4FB01EE0FB1
:104A2000FF1FEB5CFE4F2081318189E090E019C0CF
:104A30006430710590F4FB01EE0FFF1FE35DFE4F44
:104A400020813181FB01E75DFE4F808190E009C04C
:104A500082E190E023E035E004C080E090E020E0D7
:104A600030E0FA013183208308950895CF93C82F51
:104A70000E943525C0935802CF91089580919E02DF
:104A8000843011F482E0089581E008958091580205
:104A9000811102C00C943E25089580E189BD82E118
:104AA00089BD09B400FEFDCF8091D8008F7D809331
:104AB000D8008091E00082608093E0008091E00067
:104AC00081FDFCCF0895CF92DF92EF92FF920F937A
:104AD0001F93CF93DF937C018B01EA010E94C526CF
:104AE000811131C0209731F088819981081B190B01
:104AF000E80EF91EC12CD12C0115110519F1809178
:104B0000E80085FD14C08091E8008E778093E8006E
:104B1000209741F0888199818C0D9D1D9983888310
:104B200085E011C00E94C526882331F30CC0F7012F
:104B300081917F018093F10001501109FFEFCF1A9D
:104B4000DF0ADACF80E0DF91CF911F910F91FF90C4
:104B5000EF90DF90CF9008952091A5023091A602AA
:104B60002617370748F06115710539F42091E800E0
:104B70002E772093E80001C0B901FC0120E0611507
:104B80007105B9F180919E02882309F440C08530F7
:104B900009F43FC08091E80083FD3DC08091E800AA
:104BA00082FF06C08091E80082FF26C080E0089561
:104BB0008091E80080FFE3CF2091F3008091F20024
:104BC00090E0922B6115710551F08830910538F411
:104BD00021912093F100615071090196F3CF21E0FA
:104BE000089709F020E08091E8008E778093E80034
:104BF000C6CF2111C7CFD6CF80919E02882339F02E
:104C0000853039F08091E80083FFCCCF04C082E08A
:104C1000089583E0089581E008952091A5023091E0
:104C2000A6022617370748F06115710539F420915F
:104C3000E8002E772093E80001C0B901FC0120E0D4
:104C400061157105C1F180919E02882309F441C06C
:104C5000853009F440C08091E80083FD3EC080911A
:104C6000E80082FF06C08091E80082FF27C080E054
:104C700008958091E80080FFE3CF2091F3008091B8
:104C8000F20090E0922B6115710559F08830910582
:104C900040F424912093F1003196615071090196FE
:104CA000F2CF21E0089709F020E08091E8008E77AC
:104CB0008093E800C5CF2111C6CFD5CF80919E0249
:104CC000882339F0853039F08091E80083FFCBCF1D
:104CD00004C082E0089583E0089581E00895982F4C
:104CE000973058F59093E900981739F07091EC00DF
:104CF0002091ED005091F00003C0242F762F50E05A
:104D000021FF19C03091EB003E7F3093EB003091D2
:104D1000ED003D7F3093ED003091EB00316030933A
:104D2000EB007093EC002093ED005093F000209185
:104D3000EE0027FF07C09F5FD3CF8F708093E900FD
:104D400081E0089580E0089580919F0287FD05C06D
:104D50008091E80080FF0EC012C08091E80082FDC3
:104D600005C080919E028111F8CF08958091E800DE
:104D70008B7708C080919E028111EACF08958091BF
:104D8000E8008E778093E80008958091E400909188
:104D9000E50045E62091EC0020FF21C02091E800CD
:104DA00020FD21C020919E02222389F0253089F028
:104DB0002091EB0025FD0FC02091E4003091E5002B
:104DC0002817390739F3415041F0C901E3CF82E098
:104DD000089583E0089581E0089584E00895209186
:104DE000E80022FFDFCF80E008950E9463270E9441
:104DF0006B27E0EEF0E0808181608083E8EDF0E0F9
:104E000080818F77808319BCA7EDB0E08C918E7F75
:104E10008C9380818F7E808310929D0208950F93E2
:104E20001F93CF93DF930E9463270E946B27C8EDE7
:104E3000D0E088818F7788838881806888838881A3
:104E40008F7D888319BC10929E0210929A02109254
:104E50009C0210929B0200EE10E0F80180818B7F93
:104E6000808388818160888342E060E080E00E94E6
:104E70006F26E1EEF0E080818E7F8083E2EEF0E04D
:104E8000808181608083808188608083F801808157
:104E90008E7F8083888180618883DF91CF911F918D
:104EA0000F910895E8EDF0E080818F7E8083E7ED3B
:104EB000F0E080818160808384E082BF81E0809324
:104EC0009D020C940F27E8EDF0E080818E7F8083B7
:104ED0001092E20008951092DA001092E100089515
:104EE0001F920F920FB60F9211242F933F934F935F
:104EF0005F936F937F938F939F93AF93BF93EF9342
:104F0000FF938091E10082FF0BC08091E20082FF5D
:104F100007C08091E1008B7F8093E1000E94D4293B
:104F20008091DA0080FF1FC08091D80080FF1BC0F5
:104F30008091DA008E7F8093DA008091D90080FF23
:104F40000DC080E189BD82E189BD09B400FEFDCFBD
:104F500081E080939E020E94BF2305C019BC10927D
:104F60009E020E94CD238091E10080FF19C08091B4
:104F7000E20080FF15C08091E2008E7F8093E20006
:104F80008091E20080618093E2008091D80080628D
:104F90008093D80019BC85E080939E020E94D123A3
:104FA0008091E10084FF30C08091E20084FF2CC03A
:104FB00080E189BD82E189BD09B400FEFDCF809109
:104FC000D8008F7D8093D8008091E1008F7E809300
:104FD000E1008091E2008F7E8093E2008091E20008
:104FE00081608093E20080919A02882311F084E02E
:104FF00007C08091E30087FF02C083E001C081E029
:1050000080939E020E94D2238091E10083FF29C0F9
:105010008091E20083FF25C08091E100877F80932B
:10502000E10082E080939E0210929A028091E1005A
:105030008E7F8093E1008091E2008E7F8093E2007A
:105040008091E20080618093E20042E060E080E0D5
:105050000E946F268091F00088608093F0000E948B
:10506000D023FF91EF91BF91AF919F918F917F914D
:105070006F915F914F913F912F910F900FBE0F90C5
:105080001F9018951F920F920FB60F9211242F9315
:105090003F934F935F936F937F938F939F93AF93C0
:1050A000BF93CF93EF93FF93C091E900CF708091AE
:1050B000EC001092E9008091F000877F8093F0006F
:1050C00078940E947E281092E9008091F000886018
:1050D0008093F000C093E900FF91EF91CF91BF91D1
:1050E000AF919F918F917F916F915F914F913F9180
:1050F0002F910F900FBE0F901F9018951F93CF9375
:10510000DF93CDB7DEB7AA970FB6F894DEBF0FBE18
:10511000CDBFEFE9F2E08091F100819322E0E73A20
:10512000F207C9F70E94E8238091E80083FF24C1B9
:1051300020919F023091A002832F90E08A30910548
:1051400008F01AC1FC01E556FF4F0C94692D203878
:1051500021F0223809F010C108C080919B02909183
:105160009C02992389F082600FC08091A3028F7006
:10517000873008F001C18093E9008091EB0085FB46
:10518000882780F91092E9009091E800977F90932A
:10519000E8008093F1001092F100CCC0822F8D7F47
:1051A00009F0EAC0222319F0223061F0E5C08091B5
:1051B000A102813009F0E0C0333009F080E0809333
:1051C0009C022AC08091A102811126C02091A302D5
:1051D0002F708FEF820F863008F0CEC02093E90049
:1051E0008091EB0080FF18C08091EB00333011F408
:1051F000806210C080618093EB0081E090E001C08C
:10520000880F2A95EAF78093EA001092EA008091CD
:10521000EB0088608093EB001092E9008091E80039
:10522000877F8093E8000E94A426A6C02111A4C015
:105230001091A1021F778091E3008078812B8093E9
:10524000E3008091E800877F8093E8000E94A42615
:105250008091E80080FFFCCF8091E300806880931C
:10526000E300112311F083E001C082E080939E02ED
:1052700083C02058223008F07FC08091A102909115
:10528000A2028C3D23E0920779F583E08A838AE2CB
:1052900089834FB7F894DE01139620E03EE051E297
:1052A000E32FF0E050935700E49120FF03C0E29514
:1052B000EF703F5FEF708E2F90E0EA3010F0C796EE
:1052C00001C0C0968D939D932F5F243149F74FBF46
:1052D0008091E800877F8093E8006AE270E0CE0169
:1052E00001960E94AC2515C06091A3027091A402A2
:1052F000AE014F5F5F4F0E94D4240097E9F12091E7
:10530000E800277F2093E800BC0189819A810E94F0
:105310000D268091E8008B778093E8002DC020381F
:1053200059F58091E800877F8093E80080919A0288
:105330008093F1008091E8008E7773CF21111CC01B
:105340009091A1029230C0F48091E800877F809311
:10535000E80090939A020E94A42680919A028111FB
:1053600004C08091E30087FF02C084E001C081E0B7
:1053700080939E020E94D4238091E80083FF0AC09C
:105380008091E800877F8093E8008091EB00806245
:105390008093EB00AA960FB6F894DEBF0FBECDBF88
:1053A000DF91CF911F9108950895CF9380919E0230
:1053B0008823B1F08091E9008F709091EC0090FF0C
:1053C00002C090E801C090E0C92FC82B1092E900FC
:1053D0008091E80083FD0E947E28CF70C093E90091
:1053E000CF9108955058BB27AA270ED09EC18FD1C8
:1053F00030F094D120F031F49F3F11F41EF45FC1DE
:105400000EF4E095E7FB55C1E92FA0D180F3BA1760
:10541000620773078407950718F071F49EF5B8C109
:105420000EF4E0950B2EBA2FA02D0B01B9019001BF
:105430000C01CA01A0011124FF27591B99F0593F03
:1054400050F4503E68F11A16F040A22F232F342F4B
:105450004427585FF3CF469537952795A795F04099
:105460005395C9F77EF41F16BA0B620B730B840BAE
:10547000BAF09150A1F0FF0FBB1F661F771F881F66
:10548000C2F70EC0BA0F621F731F841F48F48795BE
:1054900077956795B795F7959E3F08F0B3CF9395AD
:1054A000880F08F09927EE0F9795879508950CD0EF
:1054B0003CC134D140F02BD130F021F45F3F19F0E2
:1054C000F8C0511166C1FBC041D198F39923C9F3CB
:1054D0005523B1F3951B550BBB27AA2762177307FA
:1054E000840738F09F5F5F4F220F331F441FAA1FAE
:1054F000A9F333D00E2E3AF0E0E830D0915050406E
:10550000E695001CCAF729D0FE2F27D0660F771F1B
:10551000881FBB1F261737074807AB07B0E809F0FD
:10552000BB0B802DBF01FF2793585F4F2AF09E3F92
:10553000510568F0BEC02DC15F3FECF3983EDCF32F
:10554000869577956795B795F7959F5FC9F7880F0B
:10555000911D9695879597F90895E1E0660F771F5D
:10556000881FBB1F621773078407BA0720F0621BEE
:10557000730B840BBA0BEE1F88F7E095089519F4AE
:105580000EF097C005C19BC0E9D0C8F39638C0F7AC
:1055900007F80F92E8942BE33AEA48EB5FE77DD1F6
:1055A0000F920F920F924DB75EB70F9235D1EAE48A
:1055B000F1E088D04F915F91EF91FF91E595EE1F5B
:1055C000FF1F49F0FE57E0684427EE0F441FFA958D
:1055D000E1F74195550BECD00F9007FEE0C0089520
:1055E000BDD088F09F5790F0B92F9927B751A0F000
:1055F000D1F0660F771F881F991F1AF0BA95C9F767
:1056000012C0B13081F0C4D0B1E00895C1C0672F9D
:10561000782F8827B85F39F0B93FCCF38695779516
:105620006795B395D9F73EF49095809570956195FF
:105630007F4F8F4F9F4F0895E89409C097FB3EF42A
:1056400090958095709561957F4F8F4F9F4F9923CF
:10565000A9F0F92F96E9BB279395F695879577954D
:105660006795B795F111F8CFFAF4BB0F11F460FF0D
:105670001BC06F5F7F4F8F4F9F4F16C0882311F065
:1056800096E911C0772321F09EE8872F762F05C079
:10569000662371F096E8862F70E060E02AF09A9514
:1056A000660F771F881FDAF7880F9695879597F909
:1056B000089597F99F6780E870E060E008959FEF94
:1056C00080EC0895DF93CF931F930F93FF92EF9297
:1056D000DF927B018C01689405C0DA2EEF01DBD0EC
:1056E000FE01E894A5912591359145915591AEF330
:1056F000EF018ADEFE019701A801DA9479F7DF90C5
:10570000EF90FF900F911F91CF91DF9108950024AA
:105710000A941616170618060906089500240A9416
:1057200012161306140605060895092E0394000C9C
:1057300011F4882352F0BB0F40F4BF2B11F460FF2B
:1057400004C06F5F7F4F8F4F9F4F089557FD905854
:10575000440F551F59F05F3F71F04795880F97FB35
:10576000991F61F09F3F79F08795089512161306EF
:105770001406551FF2CF4695F1DF08C0161617061E
:105780001806991FF1CF8695710561050894089553
:10579000E894BB2766277727CB0197F908959B01EB
:1057A000AC0160E070E080E89FE381CE82CFD0C0A2
:1057B000D5DFE8F39923D9F3940F511DBBF3915032
:1057C000504094F059F0882332F0660F771F881FFD
:1057D00091505040C1F79E3F510544F7880F911DED
:1057E0009695879597F908955F3FACF0983E9CF0A9
:1057F000BB27869577956795B79508F4B160939523
:10580000C1F7BB0F58F711F460FFE8CF6F5F7F4F10
:105810008F4F9F4FE3CFBDCFFA01DC01AA0FBB1F13
:105820009B01AC01BF5728F4222733274427507827
:105830001FC0B75188F4AB2F0024469537952795A4
:10584000011CA395D2F3002069F0220F331F441FDF
:10585000B395DAF30DD0C6CD61307105A0E88A07A3
:10586000B94630F49B01AC016627772788279078EA
:10587000309621F0208331834283538308950BD0E7
:1058800054CF45DF28F04ADF18F0952309F011CFF7
:1058900016CF11247ECF5ADFA0F3959FD1F3950F39
:1058A00050E0551F629FF001729FBB27F00DB11DA4
:1058B000639FAA27F00DB11DAA1F649F6627B00D34
:1058C000A11D661F829F2227B00DA11D621F739F1D
:1058D000B00DA11D621F839FA00D611D221F749F2B
:1058E0003327A00D611D231F849F600D211D822F72
:1058F000762F6A2F11249F5750408AF0E1F08823B9
:105900004AF0EE0FFF1FBB1F661F771F881F9150C5
:105910005040A9F79E3F510570F0CBCE3ACF5F3F84
:10592000ECF3983EDCF3869577956795B795F795F8
:10593000E7959F5FC1F7FE2B880F911D9695879580
:1059400097F908959F9313D00F9007FCEE5F36C030
:105950009F3F31F0915020F4879577956795B795E3
:10596000880F911D9695879597F90895A8CEF6DE34
:10597000E8F3E894E0E0BB279F57F0F02AED3FE022
:1059800049EC06C0EE0FBB0F661F771F881F28F07B
:10599000B23A62077307840728F0B25A620B730B9E
:1059A000840BE3959A9572F7803830F49A95BB0F83
:1059B000661F771F881FD2F79048CCCFEF93E0FF88
:1059C00006C0A2EA2AED3FE049EC5FEB1DDDADDE4B
:1059D0000F90039401FC9058E2E7F1E000C09F9320
:1059E0008F937F936F93FF93EF939B01AC0147DFFE
:1059F000EF91FF9167DE2F913F914F915F913FCFE4
:105A0000A29FB001B39FC001A39F700D811D1124FF
:105A1000911DB29F700D811D1124911D0895DB0110
:105A20008F939F930E946F2DBF91AF91A29F800D86
:105A3000911DA39F900DB29F900D11240895AA1B54
:105A4000BB1B51E107C0AA1FBB1FA617B70710F069
:105A5000A61BB70B881F991F5A95A9F7809590959B
:105A6000BC01CD01089597FB072E16F4009407D0D2
:105A700077FD09D00E941F2D07FC05D03EF49095BC
:105A800081959F4F0895709561957F4F0895A1E28C
:105A90001A2EAA1BBB1BFD010DC0AA1FBB1FEE1FA8
:105AA000FF1FA217B307E407F50720F0A21BB30BF3
:105AB000E40BF50B661F771F881F991F1A9469F76F
:105AC00060957095809590959B01AC01BD01CF01CB
:105AD0000895EE0FFF1F0590F491E02D09940E94A8
